:1000000000000120750300005D0300005F03000095
:1000100061030000630300006503000000000000AE
:100020000000000000000000000000006703000066
:1000300069030000000000006B0300006D03000076
:100040006F0300006F030000851800006F030000BD
:100050006F0300006F0300006F0300006F030000D8
:100060006F0300006F0300006F0300006F030000C8
:100070006F030000A11900006F0300006F03000070
:100080006F0300006F0300006F0300006F030000A8
:100090006F0300006F0300006F0300006F03000098
:1000A0006F0300006F0300006F0300006F03000088
:1000B0006F0300006F03000000000000000000005C
:1000C0006F0300006F0300006F0300006F03000068
:1000D0006F0300006F0300006F03000000000000CA
:1000E0000000000000000000000000000000000010
:1000F0000000000000000000000000000000000000
:1001000000000000000000000000000000000000EF
:1001100000000000000000000000000000000000DF
:1001200000000000000000000000000000000000CF
:1001300000000000000000000000000000000000BF
:1001400000000000000000000000000000000000AF
:10015000000000000000000000000000000000009F
:10016000000000000000000000000000000000008F
:10017000000000000000000000000000000000007F
:10018000000000000000000000000000000000006F
:10019000000000000000000000000000000000005F
:1001A000000000000000000000000000000000004F
:1001B000000000000000000000000000000000003F
:1001C000000000000000000000000000000000002F
:1001D000000000000000000000000000000000001F
:1001E000000000000000000000000000000000000F
:1001F00000000000000000000000000000000000FF
:10020000354936480A1A02D0072291438D463449AF
:1002100034480A1A06D00722914381F30988022242
:1002200082F3148830483149314A00F044F83148AB
:100230003149324A00F03FF831483249324A00F041
:100240003AF832483249334A00F035F832483349F7
:10025000334A00F030F833483349344A00F02BF881
:1002600033483449344A00F026F8344834490022EF
:1002700000F02CF833483449002200F027F83348C6
:100280003349091A082902DB002202604160314A21
:1002900090471F481F49884205D00268043003B4C4
:1002A000904703BCF7E700208646EC46002000217B
:1002B000294A9047FEE7884207D0521A05D00378B2
:1002C00001300B700131013AF9D17047884202D0F8
:1002D00002700130FAE770470000012000E00020C2
:1002E0000000012000000120D0AC00000000002030
:1002F00040000020D0030000D00300003074000054
:10030000D0AC00000000002000000020B874000005
:10031000B8740000B8740000B8740000B87400002D
:10032000B8740000B8740000B8740000D0AC0000CD
:1003300010AD0000400000204000002040000020E0
:1003400004110020041100200411002004110020D9
:10035000043100209D030000F9260000FEE7FEE7BF
:10036000FEE7FEE7FEE7FEE7FEE7FEE7FEE7FEE765
:1003700000F002B8FFF7FCBF0F484FF007018843B9
:1003800085460E4880470E48016841F470010160BF
:10039000BFF34F8FBFF36F8FFFF732BF09480A4992
:1003A0000A4A884207D0521A05D0037801300B70F0
:1003B0000131013AF9D17047000001207934000081
:1003C00088ED00E0B874000000000020000000206C
:1003D00002F0DAB80021084602F08AB810F1360FB0
:1003E0000AD058B148F2165248F2115310F1380FA2
:1003F00014BF10461846704748F21450704708B5AD
:100400000846114601F0B8F9002008BD30B5044691
:1004100085B0002001F070F9054678B9201D0390E1
:1004200002F0FCFE0649039800952B462A4602F08E
:1004300051FF05B0BDE83040FFF7D0BF05B030BD7B
:10044000FF03000008B5043002F0F3FE01F074F978
:10045000002008BD08B5043002F0D0FFBDE8084018
:10046000FFF7BCBF08B5114604301A4602F0F0FE93
:10047000BDE80840FFF7B2BF1FB50021039001AAF5
:1004800044F20100CDE9011100F004F805B05DF877
:1004900004FB000010B572B600F0E6FF00F06CFE41
:1004A0000028FBD1104B114C1149E41AE408240434
:1004B00044F0010000F09EFF0E4B1B68DB0700D5E7
:1004C00000BE0D4944F0020000F094FFBFF34F8FCF
:1004D0000A490B4BCA6802F4E0621343CB60BFF3D6
:1004E0004F8F00BFFDE700BF4C7400006C7400002C
:1004F000B8740000F0ED00E0C474000000ED00E00E
:100500000400FA0572B6024A13680133136070479B
:1005100040000020034A1368013B136003B962B630
:10052000704700BF40000020FFF7ECBFFFF7F2BFAD
:1005300030B50A48002301215C0903F01F0250F87E
:10054000245001FA02F201332A43BF2B40F8242041
:10055000F2D1034B0020197030BD00BF44000020D1
:100560005C00002010B5034653E8000F0A4643E83C
:10057000002494F0000FF7D110BD10B5034653E8E6
:10058000002F42EA010043E8000494F0000FF6D186
:1005900010BD10B5034653E8000F00EA010243E81E
:1005A000002494F0000FF6D110BD10B5034653E8B7
:1005B000002F02EB010043E8000494F0000FF6D195
:1005C00010BD10B5034653E8002FA2EB010043E82D
:1005D000000494F0000FF6D110BD0121FFF7CDBF4C
:1005E0000021FFF7D6BF10B590B1D0E90123016813
:1005F0009B1ADBB20A60013BDBB2FF2B026802D11F
:100600000020107110BD11684C1C14600B70F2E7D3
:100610000E20F7E738B504460020FFF785FF226873
:1006200063681168994213D9481E106011F8015C83
:10063000E368218A01FB0535A36811791B1ADBB237
:10064000994200D213710020FFF770FF284638BD91
:100650000025F8E738B5054600200C46FFF764FF93
:100660002A681368591C1160E968641A298AB4FB66
:10067000F1F41C70BDE838400020FFF757BF8268D6
:1006800010B504462AB14369016800699847002300
:10069000A36010BD0EB403B5039921B104AB01AA48
:1006A000019300F077F802B05DF804EB03B07047F7
:1006B0000A2938B504460D4602D10D21FFF7F8FF8F
:1006C000A3682268591CA160D554D4E901329A422A
:1006D00004D32046BDE83840FFF7D1BF38BD000045
:1006E0002DE9F84F9846DDE90A43154682460F4644
:1006F0000A464FF00109AA420FD2C14538BFC14690
:1007000013F0010B01D16CB900240126B8F1010FDF
:100710001BD908F1FF386E43F8E709F10109B2FB74
:10072000F5F2E8E79B070ED5B8F1000F0CBF3026B5
:100730002026A145E9D2013C31465046FFF7B8FFDB
:10074000002CF6D1E0E72026F3E7B7FBF6F39D4255
:10075000E1D9DFF83C80B7FBF6F3504618F80310F8
:1007600006FB1377FFF7A4FF3346AB42B6FBF5F663
:10077000F1D2BBF1000F02D00CB1A14501D3BDE80D
:10078000F88F20215046013CFFF792FFF4E700BFAD
:10079000DA7400002DE9F74F054617468846002910
:1007A00000F0428118F8011B49B92B7B002B00F0A7
:1007B0003B81284603B0BDE8F04FFFF760BF252915
:1007C00040F0B780002698F800302D2B424608F103
:1007D000010823D0302B24D02B2B25D000242A2B0A
:1007E00002F1010123D13B681A1D1B683A601C44C9
:1007F0000A4613782E2B26D101324FF0000A1046FC
:1008000010F8011BA1F1300CBCF1090F1DD80A230F
:1008100003FB0A13A3F1300A0246F0E746F0010693
:10082000D1E746F00206CEE746F00406CBE711F822
:10083000013CA3F130000928DBD80A2202FB043472
:10084000303C0A46CBE74FF0000A12F8011B01F0DA
:10085000FB0068289046F8D0782909D86F290CD871
:10086000632962D022D8252963D0582900F08880D6
:1008700098F80030002B95D197E770390829F7D800
:1008800001A353F821F000BF030A00007108000023
:100890007108000091090000710800006F09000054
:1008A000710800007108000081090000642901D06E
:1008B0006929DDD13A68D2F80090111D89EAE97200
:1008C0003960A2EBE9724FF0010B092A35DCD34500
:1008D00038BFD3462CB1B9F1000F01DB720700D548
:1008E000013CB30702D5BAF1000F03D0F00701D4E1
:1008F0004CBB0024B9F1000F2DDAC9F100092D21FC
:100900002846FFF7D5FE06F00302022A04D1BAF109
:10091000000F01D11CBB0024CDE9004653460A223A
:1009200049462846FFF7DCFEA2E73B681A1D197806
:100930003A602846FFF7BCFE9AE70A230BF1010B49
:10094000B2FBF3F2C1E7A345D4D220212846013CF3
:10095000FFF7AEFECCE77107D5D52B21D0E7A34535
:10096000DAD230212846013CFFF7A2FED2E73968EF
:10097000CDE900460A1D3A6053460A220968D0E7CD
:1009800039680A1D3A60CDE9004653461022F5E762
:100990003B681A1D3A6016F00106D3F8009028D182
:1009A000B9F1000F03D0484603F095F80646B4426B
:1009B00000D904BB09F1FF3919F8011F00293FF4E0
:1009C00057AF2846FFF774FEF6E728460136FFF7D3
:1009D0006FFE19F806100029F7D1A642BFF448AF00
:1009E000002C3FF445AF20212846013CFFF760FE74
:1009F000F3E70026EDE720212846013CFFF758FEEB
:100A0000D5E73B681A1D3A60302128461C68FFF77D
:100A10004FFE78212846FFF74BFE00220823CDE940
:100A20000032214610227CE703B0BDE8F08F00BF02
:100A30002DE9F84FB0F806A04579D2F800B09DF83E
:100A400028900AFB05F5043D88460BEB0301A942FB
:100A500003F1040488BFA5EB030BB4FBFAF60746C9
:100A60000AFB1644C2F800B04EB9AAEB04055D4576
:100A700028BF5D46BBF1000F04D1BDE8F88F3F6889
:100A8000013EF1E7043408EB06003C442A46B9F184
:100A9000000F0DD02146ABEB050B02F09EFFDA45AF
:100AA0002E443F6855464FF0000428BF5D46E1E7FD
:100AB00001462046EFE7FFF796BDF8B546790146B7
:100AC000721E0546002393422D6803D30024A642DC
:100AD00002D8F8BD0133F6E70F682846FFF7BAFDE4
:100AE00001343946F3E72DE9F843068ACD1C074661
:100AF000FFF790FD043E35440446B5FBF6F5F0B132
:100B00004FF48073EDB28380C680013D076081465B
:100B10004FF00008A84512D23846FFF77BFD064685
:100B200048B163790133637108F10108C9F8000025
:100B300007608146EEE72046FFF7BFFF34462046B8
:100B4000BDE8F88301210430FFF72FBD10B5012166
:100B500004460430FFF735FD10F0FF0F04D12046A6
:100B6000BDE81040FFF7A9BF10BD1FB503920022DA
:100B7000009203AAFFF75CFF05B05DF804FB1FB508
:100B800003920122009203AAFFF752FF05B05DF81D
:100B900004FB026813685268934291BFD01A8068C0
:100BA0000130801888BFC01A704703682DE9F041F2
:100BB0001F681E6815465A68964286BF83680133CF
:100BC000961B8846C268416888BF9E1BB542044692
:100BD00007FB02110CD86A43404602F0FEFEA368F0
:100BE0003D449D4288BF002523681D60BDE8F0811B
:100BF00006FB02F73A46404602F0EFFEE268616803
:100C0000AD1B6A4308EB070002F0E7FEECE7036860
:100C100081681A685B688B4234BF01330023D31AA2
:100C2000584258417047F8B5044600200D46FFF77A
:100C30007BFC2046FFF7EBFF10B1237C002B3CD15F
:100C40002268A66853685168B14234BF013100215F
:100C5000516030B11168A068814234BF0131002178
:100C60001160E2686068511E072920D8DFE801F0B2
:100C700004101F141F1F1F182A78C2542046FFF7A4
:100C800088FF23689A68824200D29860002415E0A9
:100C90002A8820F81320F1E72A6840F82320EDE79E
:100CA000D5E9006700EBC300C0E90067E6E7294625
:100CB00002FB030002F091FEE0E704240020FFF7AE
:100CC00035FC2046F8BD37B505460191144682B182
:100CD0000020FFF729FC2846FFF75BFFA04201999F
:100CE0000AD322462846FFF760FF00240020FFF7C2
:100CF0001DFC204603B030BD0524F7E710B50446BF
:100D00000020FFF711FC20680C22002102F08EFE6B
:100D1000BDE810400020FFF709BC836800225A603C
:100D2000C3E904229A60DA601A60704770470000D5
:100D300007B5044B0093044A402300F032F803B097
:100D40005DF804FB4D0D00005E0000202DE9F84326
:100D500088461446B2B10F4B0F4E0325002743F0CF
:100D60000109224608EB0701002002F04DFD07446F
:100D7000241A48B933782BB14FF47A40C847013D63
:100D800002D13570BDE8F88301233370002CE8D11F
:100D9000F8E700BFF07400005D000020704702F02B
:100DA00067BDF0B595B01D46164608460C46FFF7E0
:100DB000C9FE1A9B0D93CDE9086500252B46082234
:100DC00005A920460A958DF82C500C95FFF7D7FE03
:100DD000079B0293069B03939DF814308DF81150E6
:100DE00003F00302012A1DD1BDF81420059DC3F3B1
:100DF000C203C2F383168DF81030B20008230EA987
:100E00002046FFF7BCFEC5F3952508AB009332469C
:100E100002AB0EA9284600F09BFB2046FFF796FE8A
:100E200015B0F0BD022AF8D1BDF81650C3F3C203C5
:100E3000C5F389158DF810300827082D2E4628BFD8
:100E400008263B4632460EA92046FFF798FEAD1B0A
:100E500008AB02AA31460EA8374400F0DDFB002D96
:100E6000EBD1DAE77047000007B5044B0093044A62
:100E70004023FFF796FF03B05DF804FBD50E00009A
:100E80009F00002030B5104D0FCD89B06C460FC4C7
:100E900095E80F0084E80F004FF0FF330622CDE9FC
:100EA0000023CDE9023309484FF0EB730022694675
:100EB000069300F0A9FC08B1FFF7DEFA044B00220C
:100EC0001A7009B030BD00BF04750000000000209A
:100ED0009E00002038B50D4B0D4D002018700D48B8
:100EE00004782D5DD2B21C4665B1043001F0A8F93A
:100EF00008B1FFF7C1FA084B1A7812B12378002B1A
:100F0000FBD038BD0C3000F05DFFF1E7DF000020C2
:100F1000C4060020000000209E00002008B50848FC
:100F2000084A0378D35C33B1043001F0F9F8BDE826
:100F30000840FFF7A7BF0C3000F0DAFEF7E700BF6C
:100F400000000020C4060020FFF79CBF38B50A4D02
:100F5000FFF725FF0421284600F064FA074B01241F
:100F60005C71FFF7F1FF042105F1100000F05AFA5F
:100F7000034B5C7138BD00BF847400001400002076
:100F80001C000020037813F0040216D003F00303C2
:100F9000012B03D0022B09D0012070470A6800887A
:100FA0000232C0F3831002440A60F5E70B684288FE
:100FB000023303EB92130B60EEE71046704700001C
:100FC0002DE9F04F044685B0861C00200F461546DB
:100FD000FFF7AAFA3F4A51683960936803F58073B6
:100FE0005B1A924602F21C4702F5836902F214482A
:100FF000B34219D30020002D68D004F00F039B01E9
:1010000043F0050363F30F00DAF80430DAB2033279
:101010001E444AF822000020CAF80460FFF786FA4E
:10102000012005B0BDE8F08F01213846FFF7BDFA79
:101030004846FFF7D2FA4046FFF7CFFADAF8080041
:101040000090C0B203300AEB80006946FFF79AFFB8
:10105000009B30BBDAB20AEB8202D16801919A1C84
:101060000133DBB20AEB83030092D3F80CB001F03A
:101070000303012B22D0022B15D083464046FFF7F5
:10108000AFFA10B1009BCAF8083059463846FFF74E
:101090008CFADAF80830DAF8042003F580739B1A2A
:1010A000A6E7D8B2CEE7BDF80630C3F38913033301
:1010B0004FEA1B4B02EB93030093DFE7BDF80430CC
:1010C000C3F383134FEA1B4B1344F5E7A40544F025
:1010D000060099E7B0010020064B074810B5012231
:1010E0001A70FFF7E8FC044610B90448FFF715FE34
:1010F000204610BDB0010020A474000068750000F7
:1011000030B50A4C71B10A4A0A49121BD2080023B1
:101110009A4201D1002030BD31F82350854202D0DF
:101120000133F5E7034654F83300F4E74C7400004C
:101130008474000000000020094B013903EBC0005B
:10114000032909D8DFE801F00A02040604207047E9
:10115000007970474079704700207047022070473F
:101160004C740000034BD3E90130C31A5842584174
:10117000704700BFB00100202DE9FF41FFF7F2FFEB
:101180000546002840F0E280714CC4F81804BFF313
:101190004F8FA3680093DBB2033304EB83006946EF
:1011A000FFF7F0FE009B18B1D4F81824002A55D0A0
:1011B000DAB2991C013304EB8202DBB204EB830345
:1011C000D268DB68029302F00303022B01920091C4
:1011D0004FD1BDF806305F48C3F38917502F3E4604
:1011E00028BF502666F38F1306F10801ADF80630CC
:1011F000FFF779FC0546002800F09380FFF7A2FC7A
:10120000002301A908222846FFF7AFFC0099CB4331
:10121000DBB20133C9B20331B6EB830F4FEA830867
:1012200004EB810122D908234246A6EB0806284692
:10123000FFF79BFCF6B2484908F1080332462846FE
:10124000FFF793FC009B033703EB97070097D4F855
:101250001834002B41D1D4F8106451E062689A42EE
:1012600099D8A260284604B0BDE8F0810823324630
:10127000E5E7012B55D1BDF804303648C3F383119F
:10128000062928BF062161F3891302318900ADF8D0
:101290000430FFF728FC0546002842D0FFF752FC37
:1012A0000023082201A92846FFF75FFC0026BDF8AD
:1012B0000420C2F38312B300964203F10803C6D29E
:1012C00000994A1CC9B20331009204EB8101042247
:1012D0002846FFF74AFC0136E9E72846FFF736FCC7
:1012E000FFF740FF80F00100C5B2BBE7F3685B7910
:1012F00023B1336829461B6830469847F3681E6857
:10130000002EF3D12846FFF721FC3046FFF70CF9F9
:10131000D4F818340BB9009BA3600020FFF706F93E
:10132000DEE7D4F8104454B90C4B0D480D49C01AEF
:10133000C008000440F0020000F05CF8D0E7236829
:1013400020469B689847E3681C68ECE7002589E71E
:10135000B0010020A4740000BC0100204C74000007
:101360006C740000517500002DE9F34704460E46E9
:10137000924601A9012218469946FFF721FE1B4F0C
:1013800010B3019D4FF00008AA1CC84508EB0201EC
:1013900023D117480021FFF7E5F880F3100000047F
:1013A00040EA1440E4006B1C04F03804DBB2EDB2F8
:1013B00044F0010407EB8303033544EA881444EA4C
:1013C0008624D86047F825403B781BB1FFF7D4FE50
:1013D0000028FBD102B0BDE8F087C9B207EB81015C
:1013E0005AF82830CB6008F10108CEE7B0010020A0
:1013F000CC05002000231A46FFF7B6BF07B501232E
:10140000019201AAFFF7B0FF03B05DF804FB07B536
:10141000CDE9002302236A46FFF7A6FF03B05DF87B
:1014200004FB000030B50F49D1F81024034600201A
:10143000144634B9DC6820714AB9C1F8103422600E
:1014400030BDE4682579854206D02468F1E7D2688A
:10145000116821601360F3E701300A28E8D14FF0EA
:10146000FF30EDE7B0010020084A38B50123D2F87B
:10147000104413701D4604B938BDE3685D712368DC
:1014800020465B689847E3681C68F4E7B0010020D9
:1014900007B503460846197A052911D05B7A2BB1A6
:1014A000094A0A490190FFF7F5F8019808490190A7
:1014B000FFF7F0F8019803B05DF804EBFFF7DFB831
:1014C000002AF8D0F2E700BF74750000F27C00003B
:1014D000AC7D000030B5C38885B004460D4633B1FD
:1014E000144A00921449154A2846FFF7D3F8217A86
:1014F00005291DD0637A4BB1A088FFF71DFE104B64
:10150000104953F820202846FFF7C4F8227A0E4BE2
:10151000A08853F8222003920021FFF7F1FD039ADF
:101520000A490346284605B0BDE83040FFF7B2B887
:1015300005B030BD7475000081750000797500003C
:1015400000760000F27C000024760000997500000F
:101550002DE9F04385B01F460C9D002395F80C90B3
:101560002B7306460C46904629463846FFF7B2FFD5
:10157000B8F1060F09D8DFE808F00412181F283365
:10158000400031462846FFF785F8002229463846B4
:10159000FFF77EFF85F80C9005B0BDE8F083226868
:1015A00031462846FFF776F8EFE7D4E900233146C5
:1015B0002846FFF76FF8E8E7A36800933146D4E9BF
:1015C00000232846FFF766F8DFE7E3680193A36886
:1015D00000933146D4E900232846FFF75BF8D4E7AF
:1015E00023690293E3680193A36800933146D4E929
:1015F00000232846FFF74EF8C7E763690393236982
:101600000293E3680193A36800933146D4E9002371
:101610002846FFF73FF8B8E708292DE9F74F80463D
:101620000E4617461C463CD8002593F80C901D73B7
:1016300019461046FFF74EFFDFF888A0DFF888B0A4
:10164000AE4231D918F8052059462046FFF722F856
:101650000135082DF4D11949194DDFF870A0204645
:10166000FFF718F84FF0000B5E4522D918F80B2051
:101670007E2A05D81046019202F0AAF9019A00B913
:101680002E2251462046FFF705F80BF1010BBBF166
:10169000080FE9D1012221463846FFF7F9FE84F808
:1016A0000C9003B0BDE8F08F51462046FEF7F2FFE4
:1016B000CEE729462046FEF7EDFFE6E7AD750000D0
:1016C000AB750000A9750000A3750000AF750000A0
:1016D00007B58DF807000DF107010648FFF7A3FADB
:1016E0000448FFF794FA08B100F03AF903B05DF846
:1016F00004FB00BF3874000038B50C4D2B7893B94B
:101700000B4B0C49002808BF18460388284620F8D0
:10171000013F00F0E5F8044618B900F00FF9012385
:101720002B70204638BD8524FBE700BFB80600209B
:101730003C760000D116000008B500F011F900F069
:1017400017F90348FFF7DAFA024B00221A7008BDB6
:1017500038740000B806002007B50A46014605485F
:10176000FFF7B1FA019000F0E9F8019803B05DF8D5
:1017700004FB00BF38740000F8B505460C4604B9F8
:10178000F8BD402C264628BF4026F7B239462846E9
:10179000FFF7E2FF0028F9D1A41B3544EFE7000072
:1017A0001FB503788DF800304368019383688DF886
:1017B0000830C368054A0393054B684653F8213047
:1017C00052F82110984705B05DF804FBBC060020D4
:1017D000C00600201FB503788DF8003043680193E0
:1017E00083688DF80830C368054A0393054B684643
:1017F00053F8213052F82110984705B05DF804FBEA
:10180000BC060020C0060020F0B5194B90F800C0BF
:1018100091F81DE043F82C20164B16460A6943F850
:101820002C20154B03F80CE00C4607460FCC89B072
:101830006D460FC594E80F0085E80F00CDF810C085
:10184000BEF1000F09D0002E0C4A694608BF32468F
:10185000381D00F0A1FB09B0F0BD002E084A694612
:1018600008BF324607F10C0000F08CF9F3E700BF27
:10187000C0060020BC060020C4060020A1170000FE
:10188000D5170000014B1B68184700BFC806002091
:1018900038B50B4B98420C4601D0002038BD0020D3
:1018A000FEF742FE074B1D7915B901221C601A7123
:1018B0000020FEF73BFE002DEFD01120EEE700BF29
:1018C00000200040C8060020034B984201BF034B94
:1018D00000221A601A71704700200040C8060020DC
:1018E00010B5124C2278FAB9114B1960037813F035
:1018F000010F104B1EBFD3F8042542F00102C3F8BC
:101900000425D3F8002222F00102C3F80022437814
:10191000094A5B01DBB282F80D334FF400531360C8
:1019200001232370002010BD8520FCE7D406002091
:10193000D006002000D0004000E100E0064B00226D
:101940001A6082B01B680193019B044B0122C3F80B
:1019500004231A6002B0704700D1004000D000405C
:10196000024A0123C2F808335360704700D0004098
:10197000084A0123C2F808335360074B4FF4005262
:10198000C3F88020BFF34F8FBFF36F8F034B00224C
:101990001A70704700D0004000E100E0D40600203B
:1019A000074B00221A6082B01B680193019B054B14
:1019B000D3F80805044B1B68C0B202B0184700BF3B
:1019C00000D1004000D00040D0060020002343504A
:1019D00082B043580193019B02B070470A4610B58C
:1019E0004FF48E71FFF7F2FF136A9168C95C136AB6
:1019F00001331362C0F81C1510BD8B690A4610B57F
:101A00004FF4847123B9FFF7E1FFD0F8183510BD0A
:101A1000FFF7DCFF536AD168D0F81805C854536A41
:101A200001335362F3E700001FB501238DF8003046
:101A3000044BCDE90110D3E900126846904705B088
:101A40005DF804FBD806002030B54C48D0F80433CC
:101A500013F4007F85B005464DD0D0F82431002B1B
:101A600049D04FF49271FFF7B1FF4FF40173C0F802
:101A70000833434B93F829200AB9012242603F49B9
:101A800002228DF80020D1F88024C1F8802403922E
:101A90009A690292DA6801920022C3E90622684636
:101AA000D3E9001290473548D0F81C315BB1344976
:101AB0004A690B6A9A420A464AD991F82830002BA3
:101AC00046D1FFF78BFF2D48D0F844318BB14FF44E
:101AD000A271FFF77BFF2A4B93F829200AB101225C
:101AE00002609A692AB10022586AD9689A61FFF7A0
:101AF0009BFF05B030BDD5F804335B07D3D5D5F8CF
:101B00000831002BCFD01E4C1C482146FFF775FF33
:101B1000636AA2699A422346C5D1E269E1684AB183
:101B20002369E3600023606AA261E3616362FFF7F7
:101B30007BFFB8E794F829200AB901226A600F4AAE
:101B40004FF40170C2F808030022586A9A61EEE768
:101B50000A484FF48E71FFF739FF5369002BB2D05A
:101B600051690291002391688DF800300191536111
:101B70006846D2E900139847A5E700BF002000405F
:101B8000D80600202DE9F843544B057991462C22C4
:101B900002FB0532064692F82A200C469846002A97
:101BA00040F098804E490068FFF772FE0746002813
:101BB00040F0928021683368481C0BD04FF0A04061
:101BC00001228A40C0F8082501F5E0724FF0030CAD
:101BD00040F822C06068421C1FBF00F5E0724FF061
:101BE000A04C4FF0000E4CF822E0A269C3F8242567
:101BF00094F814C0627DBCF1010F4CEA0202C3F8F4
:101C00006C25C3F81405C3F80C151DD1A1684A1C36
:101C10001FBF01F5E0724FF0A0404FF0000C40F8FC
:101C200022C0E268501C0BD04FF0A04C0120904025
:101C3000CCF8080502F5E0704FF0030E4CF820E0F8
:101C4000C3F80825C3F810152C236B4308EB0302D7
:101C5000C2F80490226948F80320B9F1000F21D09E
:101C60003068247F4FF48E71FFF7B0FE4FF4A271FD
:101C70003068FFF7ABFE32681A4BC2F80433110B21
:101C800042F307326301002ADBB21EDB16488418D8
:101C900084F800330123520901F01F0103FA01F116
:101CA00040F8221033680422C3F800252C2303FBDC
:101CB00005830022C3E9062283F829205A61012204
:101CC00083F82A203846BDE8F883084A01F00F015E
:101CD0005354E7E70827F5E71127F3E7D806002074
:101CE000491A00008000020000E100E014ED00E06D
:101CF000F8B503680479304D0022C3F800252C2282
:101D000002FB04525268A2B12C4AC3F808231A0BF2
:101D100043F30733002B0CDB02F01F015B090122A8
:101D20008A402033264941F82320BFF34F8FBFF369
:101D30006F8F0068D0F80C65D0F81415D0F808350E
:101D4000D0F810254FF0FF37BE42C0F8147518BF09
:101D500006F5E076C0F80C75C0F80875C0F8107587
:101D60001EBF4FF0A0474FF0020C47F826C04E1C94
:101D70001FBF4FF0A04601F5E071022746F8217021
:101D8000511C1FBF4FF0A04102F5E072022641F83E
:101D900022605A1C1FBF03F5E0734FF0A0420221DE
:101DA00042F82310FFF790FD2C2303FB045400237B
:101DB00084F82A306360F8BDD8060020840202004F
:101DC00000E100E02DE9F047204F90F804904FF03B
:101DD0002C0808FB097405466669002E34D162613F
:101DE0000068A16026624FF48E7184F82860FFF7C6
:101DF000EDFD2868012383602146FFF7EFFD63684E
:101E0000A0468BB92868D4F814A0236A9A4511D843
:101E10002A68D2F81C31002BFBD00123D3602C237D
:101E200003FB097300225A613046BDE8F08794F83D
:101E300028303BB9D0F81C31002BF8D04146FFF7D1
:101E4000CDFDE2E70F26EAE71126EDE7D8060020F0
:101E50000023435082B043580193019B02B0704766
:101E60001FB501238DF80030044BCDE90110D3E9F3
:101E700000126846904705B05DF804FB0407002097
:101E80007FB5434AD2F82461002E60D010464FF44B
:101E90009271FFF7DDFF02238DF80030D2F8803415
:101EA000C2F880340393D2F83C350293394BDA6898
:101EB00001920022C3E906226846D3E90012904746
:101EC0003348D0F8443173B14FF4A271FFF7C0FF2B
:101ED000304B9A693AB10022C3E90622D968D0F89A
:101EE0003C05FFF7BDFF2A48D0F82031ABB14FF4D5
:101EF0009071FFF7ADFF0123C360264B5A6962B1B1
:101F0000D0F84C150291002299688DF800200191BB
:101F10005A616846D3E9001290471D48D0F85831FD
:101F20009BB14FF4AC71FFF793FF1A4B5A6962B142
:101F3000D0F84C150291002299688DF8002001918B
:101F40005A616846D3E90012904704B070BDD2F8D8
:101F50001031002BB4D04FF488711046FFF778FF92
:101F60000C4BD2F83C0599698842A9D1DC69D96843
:101F700064B1D2F8005225F02005C2F800521A6967
:101F80009C61DA60DE61FFF76BFF99E79C61FAE71D
:101F900000200040040700202DE9F8435B4B067940
:101FA0009146242202FB0632044692F820200D4678
:101FB0009846002A40F0A58055490068FFF768FC64
:101FC0000746002840F09F8029682368481C0BD0F2
:101FD0004FF0A04001228A40C0F8082501F5E072C8
:101FE0004FF0030C40F822C06868421C1FBF00F588
:101FF000E0724FF0A04C4FF0000E4CF822E0AA69BE
:10200000C3F8242595F814C06A7DBCF1010F4CEA91
:102010000202C3F86C25C3F80C15C3F814051DD1D2
:10202000A9684A1C1FBF01F5E0724FF0A0404FF0B5
:10203000000C40F822C0EA68501C0BD04FF0A04CB6
:1020400001209040CCF8080502F5E0704FF0030E37
:102050004CF820E0C3F80825C3F810152423734377
:1020600008EB0302C2F804902A6948F80320B9F18A
:10207000000F30D020682A7F4FF48871FFF7E8FE08
:1020800020684FF49071FFF7E3FE20684FF49271DF
:10209000FFF7DEFE20684FF4A271FFF7D9FE4FF480
:1020A000AC712068FFF7D4FE23681A49C3F8041303
:1020B000190B43F307335201002BD2B21CDB164835
:1020C000C51885F8002301225B0901F01F0102FAFF
:1020D00001F140F8231023680822C3F800252423C7
:1020E00003FB06830022C3E906225A61012283F81A
:1020F00020203846BDE8F883084B01F00F015A5400
:10210000E9E70827F5E71127F3E700BF04070020F8
:10211000811E00001003420000E100E014ED00E029
:10212000F8B5444D0479242303FB045302465B684D
:102130000068ABB1404BC0F8083340F30733002BC5
:102140004FEA10310CDB01F01F065B090121B140A1
:1021500020333A4E46F82310BFF34F8FBFF36F8FF3
:10216000D0F8003223F02003C0F80032242303FB10
:1021700004539B692BB14FF4A271FFF769FE012351
:1021800043604FF4AC71FFF763FE0123C360242367
:1021900003FB0453D0F858110029FBD0996919B1F9
:1021A000D0F844110029F5D00023C0F80035136899
:1021B000D3F80C75D3F81465D3F80825D3F81015A7
:1021C0004FF0FF3C6745C3F80CC518BF07F5E07733
:1021D000C3F814C5C3F808C5C3F810C51EBF4FF037
:1021E000A0434FF0020C43F827C0771C1FBF4FF0ED
:1021F000A04306F5E076022743F826704E1C1FBF69
:1022000001F5E0714FF0A043022643F82160531C12
:102210001FBF4FF0A04302F5E072022143F82210E5
:10222000FFF752FB242303FB0454002384F82030DF
:102230006360F8BD040700201003420000E100E0E5
:1022400001F06043B3F1005F2DE9F041064638D15B
:102250001E4B0779242505FB073598466C69002C31
:1022600031D16A610068A9604FF49071FFF7F0FD09
:102270004FF4AC713068FFF7EBFD33686A69A96809
:10228000C3F84415C3F8482501229A606A68AAB9C0
:10229000D3F82021D3F858411AB9002CF8D00F24D4
:1022A00007E0002CFBD10122DA60D3F85821002A84
:1022B000FBD0242303FB078700237B612046BDE876
:1022C000F0811024FAE71124F8E700BF040700208A
:1022D00028B139B10023C1E900301846704748F2EF
:1022E0001050704748F21350704700002DE9F0413C
:1022F000884600AF06461146404614461D46FFF785
:10230000E7FFF8B929464046FFF7E2FFD0B998F851
:1023100004200F4B53F82230BBB156B90D4931F8A8
:10232000121031B107316A46C908A2EBC1029546C5
:102330006E462A4621463046984718B9064B236018
:10234000063B2B60BD46BDE8F08148F20350F9E73B
:1023500058760000527600007652464D70B1084A19
:10236000002352F83310814203D102EBC3035868B3
:1023700070470133192BF4D1024870470248704767
:10238000E87B00006D76000064760000F8B50A4F27
:102390000A4C0B4DE41B0121E40829700026A642DB
:1023A00003D102232B700020F8BD57F83630984730
:1023B0000028F9D10136F2E73074000038740000CB
:1023C00028070020054B1A78022A04D01878431EEB
:1023D0005842584170470120704700BF280700202D
:1023E00030B50023934201D1012006E0C55CCC5CEE
:1023F000A54203D08CBF0120002030BD0133F1E79E
:102400002DE9F74F9DF830B01E4605468846174621
:1024100000239E424FEAC30903F101024CD1FF237E
:10242000D2005B0033F0FF0103D109F101094A45F5
:10243000F7D1002D45D0002E46D0B8F1000F46D080
:10244000002F44D0324641463846FFF7C9FF0028E6
:1024500040D009F007030093009AFF2313415BB2B9
:102460004FEAD90A019305EBD9091C485B4600687D
:1024700032462946FDF7EEFF0446C8B901465246EA
:10248000284601F0D3FA009B2BB199F80020019B5C
:102490001A4089F80020324641462846FFF7A0FF3F
:1024A0000028E2D029463846FFF79AFF0028DCD002
:1024B000204603B0BDE8F08FFB5C002BB0D1134683
:1024C000A7E748F21354F3E748F21454F0E748F250
:1024D0001054EDE748F21754EAE700BF78080020EF
:1024E00013B501240094FFF78BFF02B010BD00006C
:1024F00070B506460D466A46194B9A4205D3FFF75A
:1025000061FF78B94FF4054070BD164B1648174966
:10251000C01AC008000440F00100FEF76BFF48F24B
:102520001950F1E7124C236823B1124B1A68124B71
:102530009A420FD086B97DB9104811492060FDF745
:1025400065FF0028E0D10B4B0B4A1A6023680D4A47
:102550001A60D9E70020D7E748F21750D4E700BF48
:1025600000E000204C7400006C740000B07C00009F
:1025700078080020700800206572E54B2C070020C9
:10258000740800206169614D094B0A4A196891423B
:102590000AD1094A1068094A0168914204D100220F
:1025A00002601A60FDF74EBF48F20250704700BF4C
:1025B000700800206572E54B780800206169614D64
:1025C00010B56C46154B9C420FD3DAB9144B1C68FE
:1025D000144B9C421BD1E8B913481346BDE8104088
:1025E0000A4600681149FDF73DBF114B11481249D9
:1025F000C01AC008000440F00100FEF7FBFE48F2DC
:10260000195010BD0029E1D148F21050F9E748F205
:102610000250F6E748F21750F3E700BF00E0002051
:10262000700800206572E54B7808002074080020CF
:102630004C7400006C740000B07C000073B513464D
:102640000D460446F8B111B3144A1168144A914278
:1026500020D1144E01932A4601463068FDF7FAFE58
:1026600048F27152904210D1002211461046FFF7F5
:10267000A7FF50B9019B30682A46214602B0BDE849
:102680007040FDF7E7BE48F2135002B070BD48F24B
:102690001450FAE748F20250F7E700BF7008002034
:1026A0006572E54B780800200122FFF7C7BF0000E4
:1026B00000B5A7B014AB02AA0A4901A8FFF716FE9D
:1026C000094B024609481B1ADB081B0443F00300B0
:1026D00032B9074904AAFEF791FE27B05DF804FB62
:1026E0000449F8E724A000006C7400004C7400005A
:1026F0004F7D0000747D0000002170B50846FEF794
:10270000EBFC08B1FDF7B8FEFEF720FC184C194BA6
:102710001949E41AE408240444F003063046FEF79D
:1027200069FEFDF705FF054658B1FFF717FE13498F
:1027300003462A4644F00100FEF769FE2846FDF7ED
:102740009BFEFFF723FE054658B1FFF707FE0B4936
:1027500003462A4644F00100FEF759FE2846FDF7DD
:102760008BFEFFF7A5FF06493046FEF743FEFEE766
:102770006C7400004C740000987D0000E47C000044
:10278000AF7D00004FF48C72002101F04FB918B1F9
:102790004FF48C7100F03ABE70470000C02AF0B5CB
:1027A00041D0B2F5807F40D0802A40F0C5800A2316
:1027B0000446036000F10803520944F8043F01EBAA
:1027C00082028A4233D103680C2B3ED00E2B6CD090
:1027D0000A2B26D15A4D5B4900F1A006426955F8F3
:1027E000044B8768C2F307237C40CB5C6340140E24
:1027F00010300C5D83EA0443D4B20C5D83EA0463B9
:10280000C2F307440C5D83EA042350F8044C836050
:1028100063400468C3606340036153404361864280
:10282000DCD100208AE00C23C2E70E23C0E78B78BE
:102830004D781B0443EA05230D782B43CD7843EAFA
:10284000056344F8043F0431BBE73D4C3D4900F1CA
:10285000C005C26954F8046B8768C2F307237E4041
:10286000CB5C7340160E18308E5D83EA0643D6B2F9
:102870008E5D83EA0663C2F307468E5D83EA062314
:1028800050F80C6C8360734050F8086CC360734060
:1028900050F8046C036173400668436173408361C0
:1028A0005340C3618542D4D1BBE7254D254900F192
:1028B000E006446A55F8042B8768C4F307237A407E
:1028C000CB5C87695340220E20308A5C83EA024346
:1028D000E2B28A5C83EA0263C4F307428A5C83EA59
:1028E000022350F8142C8360534050F8102CC3601E
:1028F000534050F80C2C03615340DAB243618A5CB8
:102900007A401F0ECF5D82EA0762C3F30727C3F345
:102910000743CF5DCB5C82EA072282EA034350F88B
:10292000042C836153400268C361534003626340D7
:1029300043628642BDD174E76FF01F00F0BD00BF57
:10294000D48E0000D47D00002DE9F04F91B0436893
:102950000D6808951C68DFF848C3CD4FCD4E6C401C
:102960004D68099508945C686C408D680A950994D7
:102970009C686C400A94CC680B9403F11001079199
:10298000D968C54D61400B91016849100191013929
:10299000029130330091DDE9089ADDE90A815FFA9E
:1029A00089F4080E5CF8244057F820004440CAF32C
:1029B00007205FFA81FE56F820005CF82EE04440C4
:1029C000C8F307405FFA88FB55F820005CF82BB08D
:1029D000444053F8200C6040C4B20394040E0494A5
:1029E000C0F307440594C0F3072406944FEA186423
:1029F000C8F3072857F824408EEA040EC9F30724C9
:102A0000203356F824408EEA040ECAF3074455F8E2
:102A100024408EEA040E4FEA1A645FFA8AFA57F8E5
:102A200024405CF82AA08BEA0404C1F3072BC1F30D
:102A3000074156F82BB055F8211084EA0B04C9F36E
:102A4000074B4FEA196955F82BB057F829908AEAD5
:102A5000090A56F828908AEA090A8AEA01090099BF
:102A6000002984EA0B0400F39780029B0C905E011E
:102A7000019B002B079BD8BF002633441E46596894
:102A800089EA01010D91986860400E90DB688EEA3A
:102A90000304250E814B0F9413F805C0039D5F5D61
:102AA00035696F40C1F3072587EA0C675D5D87EAEA
:102AB0000527C0F307455D5D87EA0547049D089734
:102AC00013F805C0756985EA0C6CCDB25D5D8CEAC2
:102AD000050CC0F307255D5D8CEA052CC4F30745A2
:102AE0005D5D8CEA054C059DCDF824C013F805808A
:102AF000B56985EA0848C5B2000E5D5D88EA05083B
:102B00000D0EC1F307415D5D88EA0568C4F3072532
:102B10005D5D88EA0528069DCDF8288013F805E05C
:102B2000F569185C177085EA0E255FFA84FE82F855
:102B300004C013F80E405B5C82F80880390A5170BB
:102B4000390C91704FEA1C2151714FEA1C4191716F
:102B500065404FEA182185EA006551724FEA184135
:102B600085EA034391724FEA1861D172190A5173D1
:102B7000190C4FEA1C600B93137391731B0E2021E9
:102B80003C0ED071D4700DEB0100D37300F03EFC0D
:102B9000002011B0BDE8F08F0C9053F83C1C89EA7E
:102BA0000109CDF8349053F8380C039960400E9029
:102BB00053F8344C8EEA04040F944FEA14685CF81E
:102BC00021E053F8301C57F8288081EA0E0E8EEA77
:102BD000080EC9F30728049956F828808EEA080ED3
:102BE000C0F3074855F828808EEA080ECDF820E09B
:102BF0005FFA89F857F821E053F82C1C5CF828801C
:102C000081EA0E0E8EEA080EC0F30728059956F8E1
:102C100028808EEA080EC4F3074855F828808EEA0B
:102C2000080ECDF824E05FFA80FE55F821805CF8AC
:102C30002EE053F8281C8EEA080E4FEA19688EEA37
:102C4000010E57F8288006998EEA080EC4F307286B
:102C5000E4B256F828805CF824408EEA080ECDF8DD
:102C600028E056F821E0000E84EA0E0EC9F3074171
:102C700053F8244C57F8200055F821108EEA04042C
:102C800044404C4000990B940139009183E600BF09
:102C9000D48A0000D4820000D4860000D47D0000D5
:102CA000D47E00002DE9F04F91B043680D6808957F
:102CB0001C68DFF850C3CF4FCF4E6C404D6809956C
:102CC00008945C686C408D680A9509949C686C4017
:102CD0000A94CC680B9403F110010791D968C74D91
:102CE00061400B9101684910019101390291303323
:102CF0000091DDF82080DDF824A05FFA88F44FEA27
:102D00001A60DDE90A9157F820005CF8244044403D
:102D1000C1F307205FFA81FE56F820005CF82EE030
:102D20004440C9F307405FFA89FB55F820005CF87E
:102D30002BB0444053F8200C6040C4B20394C0F35D
:102D400007240494C0F307440594040E06944FEA44
:102D50001864203357F824408EEA040EC9F3072480
:102D60004FEA196956F8244057F829908EEA040E64
:102D7000CAF3074455F824408EEA040E0C0EC1F342
:102D8000074157F8244055F821108BEA0404CAF390
:102D9000072B5FFA8AFA56F82BB05CF82AA084EA6F
:102DA0000B04C8F3074BC8F307288AEA090A56F848
:102DB000289055F82BB08AEA090A8AEA0109009995
:102DC000002984EA0B0400F39780029B0C905E01BB
:102DD000019B002B079BD8BF002633441E46596831
:102DE00089EA01010D91986860400E90DB680D0E34
:102DF0008EEA0304824B0F9413F805C0039D5F5DB8
:102E000035696F40C4F3072587EA0C675D5D87EA83
:102E10000527C0F307455D5D87EA0547049D0897D0
:102E200013F805C0756985EA0C2CCDB25D5D8CEA9E
:102E3000050C050E5D5D8CEA056CC4F307455D5D10
:102E40008CEA054C059DCDF824C013F80580B569C2
:102E500085EA0848C5B2C0F307205D5D88EA050829
:102E6000250E5D5D88EA0568C1F30725C1F30741BA
:102E70005D5D88EA0528069DCDF8288013F805E0F9
:102E8000F569185C177085EA0E655FFA84FE82F8B2
:102E900004C013F80E405B5C82F80880390A517058
:102EA000390C91704FEA1C2151714FEA1C4191710C
:102EB00065404FEA182185EA002551724FEA184112
:102EC00085EA034391724FEA1861D172190A51736E
:102ED000190C4FEA1C600B93137391731B0E202186
:102EE0003C0ED071D4700DEB0100D37300F08EFA5C
:102EF000002011B0BDE8F08F0C9053F83C1C89EA1B
:102F00000109CDF8349053F8380C039960400E90C5
:102F100053F8344C8EEA04040F944FEA19685CF8B5
:102F200021E053F8301C57F8288081EA0E0E8EEA13
:102F3000080EC4F30728049956F828808EEA080E74
:102F4000C0F3074855F828808EEA080ECDF820E037
:102F50005FFA89FE56F821805CF82EE053F82C1CAD
:102F60008EEA080E4FEA10688EEA010E57F82880A4
:102F700005998EEA080EC4F3074855F828808EEAB2
:102F8000080ECDF824E05FFA80FE55F821805CF849
:102F90002EE053F8281C8EEA080E4FEA14688EEAD9
:102FA000010E57F8288006998EEA080EC9F3072803
:102FB000E4B256F828805CF824408EEA080ECDF87A
:102FC00028E057F8218053F8241CC0F3072081EA39
:102FD0000808C9F3074156F8200055F8211088EA7F
:102FE000040E8EEA000E8EEA01010B910099013960
:102FF00000917EE6FC9B0000FC930000FC97000023
:10300000FC8E0000FC8F000010B40C46012C114611
:103010001A4603D15DF8044BFFF796BC5DF8044BEC
:10302000FFF740BE2DE9F04FB2F5C07FADF53F7D13
:1030300006460F46154600F2A9804FF4D0720021D3
:1030400056A800F0F3FC10A8FFF79CFB0DF5B8782C
:103050006BBA0024ADF86A312A462023404639462F
:103060008DF86F31ADF8684100F0B7FC80236A46F7
:1030700008F805302346904602F8013B0133102B37
:10308000FAD18022414610A8FFF788FB04460028A9
:103090005CD119350746102200210DEB020000F02B
:1030A000C5FCAA460DF2671304AAA3F110099346C2
:1030B000117819F8010F4140994502F8011BF7D129
:1030C000BAF1100F5B465A464FF0010110A894BFA9
:1030D000AAEB0A0AAAF1100AFFF796FF0446A8BB5A
:1030E00009F11003BAF1000FDED108ABD819102294
:1030F000594600F072FC9DF85B3110370133202FE8
:103100008DF85B31C7D1802208A910A8FFF746FBD4
:103110000446D8B90CAB1A46012110A8FFF774FF7A
:10312000044698B910220CA9304600F056FC0CABAE
:103130001A46012110A8FFF767FF06F110050446A3
:1031400020B910220CA9284600F047FC10A8FFF770
:103150001EFB4FF4D07156A800F058F920210DEB5A
:10316000010000F053F91021404600F04FF9102102
:103170000DEB010000F04AF91CB12021304600F0AF
:1031800045F920460DF53F7DBDE8F08F6FF037041F
:10319000F7E72DE9F04389B005460E4620220021CD
:1031A000684600F043FC002705F12009E8460DEBD6
:1031B000070305F10F010A780132D2B2084601F87F
:1031C00001290AB9A842F6D12A4601214846FFF74B
:1031D0001BFF0446D0B91037202FE7D1731E1F36CE
:1031E00098F8002013F8011F4A40B34208F8012B59
:1031F000F6D1802269464846FFF7D0FA044628B93E
:1032000010220DEB0201284600F0E7FB6846202162
:1032100000F0FCF8204609B0BDE8F08310B54FF48B
:10322000A0720446002100F001FC4FF6F073E36148
:1032300010BD10B5044650B12030FFF7A8FA4FF486
:10324000A071204600F0E2F84FF6F073E36110BD84
:10325000F0B58369B3F5C07FE1B005460F4614466B
:1032600032D8C3F5C07393422ED34FF4C0720021FD
:10327000684600F0DBFBD5F83831AA69D5F83C0187
:103280006946984718BBAE693FB134B10DEB0600F3
:103290002246394600F0A1FB26443246694668467C
:1032A000FFF7C0FE044638B969462846FFF771FFAC
:1032B000044608B901232B614FF4C071684600F041
:1032C000A5F8204661B0F0BD6FF03704F9E76FF064
:1032D0003304F6E7F0B587B004460F4616460021E2
:1032E000102202A81D4600F0A1FB04F1200001906D
:1032F000FFF748FAA3690198C4E94E760BB9202379
:10330000A361802202A9FFF749FA20B90C9A294645
:103310002046FFF79DFF07B0F0BD2DE9F0418CB0CE
:10332000B2F5806FDDF8488005460F4616461C460C
:103330005ED8B8F5807F5ED82022002104A800F076
:1033400075FB2A69EB699A4201DC6B699BB12146E6
:1033500042462846FFF77CFF044628BB05F12008BB
:1033600036BB04A92846FFF714FF0446A0B92B6911
:1033700001332B6110E0B8F1000FEFD02146424637
:1033800004A8FFF74FFE044630B904A92846FFF70A
:1033900000FF04460028E1D0202104A800F036F800
:1033A0001021684600F032F820460CB0BDE8F081EC
:1033B00005F10F0213780133DBB2114602F801392F
:1033C0000BB9A942F6D16B462A4601214046FFF7C8
:1033D0001BFE04460028DFD1102E344628BF1024DF
:1033E00038462246694600F0F8FA2744361BB7E70C
:1033F0006FF03504D8E76FF03704D5E707B5002341
:103400000093FFF78AFF03B05DF804FB0A4619B189
:10341000024B00211B681847704700BF24000020A2
:10342000044B1868421C04BF034B1878831F584292
:103430005841704730010010E00F00F0074B1B7837
:10344000062B09D1064B1B68C3F30313033B042B64
:1034500002D8044AD05C704700207047E00F00F0AB
:10346000E80F00F00BA00000024AD2F80034002B55
:10347000FBD0704700E0014010B5FFF7D1FF28B145
:10348000874B884A1B68C3F304231360FFF7D6FFFA
:1034900010B1854B854A1A60FFF7C2FF28B1844BF3
:1034A000844A1B68C3F342331360FFF7C7FF20B1A0
:1034B000814AD36823F08073D360FFF7B1FF40B136
:1034C0004FF080430022C3F80C21C3F81021C3F849
:1034D0003825FFF7B3FF10B1784B03221A60FFF7CE
:1034E000ADFF40B1764B05221A6001229A67002297
:1034F0009A603F225A60734B1A68511C0BBF724B83
:10350000724B1A781B6802BF08331B68C3F303139E
:10351000062A4DD1033B042B03D86D4AD35C002B04
:1035200046D04FF080526B4BD2F80414C3F82015EC
:10353000D2F80814C3F82415D2F80C14C3F82815CF
:10354000D2F81014C3F82C15D2F81414C3F830159F
:10355000D2F81814C3F83415D2F81C14C3F8401567
:10356000D2F82014C3F84415D2F82414C3F848152F
:10357000D2F82814C3F84C15D2F82C14C3F85015FF
:10358000D2F83014C3F85415D2F83414C3F86015C7
:10359000D2F83814C3F86415D2F83C14C3F868158F
:1035A000D2F84014C3F86C15D2F84424C3F870253F
:1035B000FFF736FF28B1484B484A1B6803F04F031A
:1035C0001360FFF72DFF48B14FF08043D3F800247C
:1035D000D20744BF6FF00102C3F80024394B1B68C7
:1035E000062B0CD1394B1B68033B042B02D83C4AF9
:1035F000D35C23B13B4A136843F4806313603A4AB7
:10360000D2F8883043F47003C2F88830BFF34F8F8C
:10361000BFF36F8F2B4B1B68062B0FD12B4B1B68F7
:10362000033B042B02D8314AD35C3BB14FF010234B
:10363000D3F808224FF08043C3F858254FF01023E9
:10364000D3F80022002A03DBD3F80432002B22DA5D
:1036500027490123C1F80435FFF706FF4FF010207A
:103660001524C0F80042FFF7FFFEC0F80442FFF740
:10367000FBFE0023C1F80435FFF7F6FEBFF34F8FC2
:1036800019491C4BCA6802F4E0621343CB60BFF3D4
:103690004F8F00BFFDE7184B184A1A6010BD00BFDE
:1036A000240300104035014074C007400DF0ADBA4E
:1036B000440200103C050040F0ED00E0A005004091
:1036C0001056004030010010E00F00F034010010EF
:1036D000FC9F000000C0004058020010E40E0040B3
:1036E00001A000003C17004000ED00E006A0000033
:1036F00000E001400400FA05280000200090D003FB
:103700000369C1688B429DBF8268D21802F1FF3203
:1037100003F1FF3394BF501A581A70472DE9F8434C
:10372000D0E902940546A9EB04084068904520447E
:103730000F46144404D900F050F9EC60BDE8F8835A
:103740004246A4EB090400F048F96868224607EBFA
:103750000801F0E72DE9F843C56806468946174693
:103760004FF000083469B3687068A54228BFE418B8
:10377000013C621B5C1BBC4228BF3C46944228BFF4
:10378000144649462844224600F027F9B3682544E8
:10379000AB4208BF00253F1BA044A144F560E1D126
:1037A0004046BDE8F883000010B5114C114AA261F3
:1037B0000223C4E90433104BE361A2644FF40063B5
:1037C0000E4A0F492362E26400231022E01DA36227
:1037D0006362E362A3656365E365226500F059F9FE
:1037E0000849204600F055F92023A37110BD00BF01
:1037F0007C08002010A0000004090020F40800202C
:1038000019A000001DA00000F8B5184C182300FBFB
:10381000033503FB00402544C46A012C0F461646BD
:103820000FD0022C1AD0F4B92846FFF769FF864260
:1038300005D8324639462846FFF770FF3446204601
:10384000F8BD2846FFF75CFF8642344628BF044691
:10385000224639462846FFF761FFF0E72846BDE8D3
:10386000F840FFF777BF0024E9E700BF7C0800209D
:10387000FFF79ABF024A03492023FEF731BE00BF7B
:1038800030A0000050A0000037B5083108461546AA
:103890000191FFF7EFFF044648B9019905F10800CF
:1038A00000F024FA48F21653002818BF1C462046A0
:1038B00003B030BDF8B501F108070C4638462021A9
:1038C0001646FEF7F1FE054680B9237A23F007037A
:1038D000237294F8273003F07F0343F0400384F809
:1038E0002730394606F1080000F0FAF92846F8BDFD
:1038F000F8B501F108070C46384620211646FEF7B8
:10390000D3FE054650B928343946204600F002FA65
:103910002022214606F1080000F05FF82846F8BD95
:103920007F2805D8034B185C034B5B5C184070473D
:10393000002070477CA00000FCA00000A0F1610303
:10394000192B98BF20387047A0F14103192B98BF5D
:10395000203070477F2805D8034B185C034B5B5C15
:1039600018407047002070477CA00000FCA00000B9
:10397000A0F16103192B98BF20387047A0F14103D3
:10398000192B98BF203070477F299ABF0170012002
:103990006FF02E0070475AB10A787F2A0AD800B11A
:1039A0000260002119605960501A18BF0120704749
:1039B000002070476FF02E007047000008B5034BE1
:1039C0005B689B681B68984708BD00BF2C000020FF
:1039D00008B50921FFF7F2FF08BD844640EA01035C
:1039E00013F0030F18D18446202A0BD32DE9F007DA
:1039F000B1E8F807A0E8F807A2F12002202AF7D2E0
:103A0000BDE8F007042A07D351F8043B40F8043B13
:103A1000A2F10402042AF7D2002A05D011F8013BD2
:103A200000F8013B013AF9D1604670478446002A0C
:103A30002DD010F0030F04D000F8011B013A26D05E
:103A4000F7E7C9B241EA012141EA0141202A12D334
:103A5000A2F120022DE9F0030B460C460D460E465E
:103A60000F4688468946A0E8FA03203AFBD2BDE813
:103A7000F00320320BD0042A05D340F8041B043A8B
:103A800005D0042AF9D200F8011B013AFBD16046A7
:103A90007047024610F0030F16D111F0030F13D137
:103AA0002DE9F0004FF001374FF0803351F8044B0F
:103AB000A4EB070525EA04051D4002D142F8044B9A
:103AC000F4E7A1F10401F0BC11F8013B02F8013B5D
:103AD000002BF9D1704700F1010110F0030F11D054
:103AE00010F8012B002A23D010F0030F0AD010F891
:103AF000012B002A1CD010F0030F03D010F8012B6B
:103B0000002A15D02DE970004FF001324FF08033BC
:103B100050F8044BA4EB020525EA04051D4000D132
:103B2000F6E7A0F1040070BC10F8012B002AFBD1CD
:103B3000A0EB0100704700002DE9F047CC7F91F821
:103B400000A0C2B00B4604F03F04D1F80110D3F836
:103B500009E0D3F80DC0D3F80580D3F81560D3F889
:103B60001950D3F81170CDF8491044F040041146B3
:103B700081462AF0070202A893F81DA09B7FCDF88A
:103B800051E0CDF855C08DF866308DF867408DF85E
:103B90004820CDF84D80CDF85D60CDF86150CDF86E
:103BA00059708DF865A000F0FFFB202202A91AA829
:103BB00001F062FC02A8012100F0E4FB0AA8002148
:103BC00000F0E0FB1AA922A8202201F055FC2AA847
:103BD000012100F0D7FB1AAE0DF14808062400259C
:103BE00016F8017D47FA04F32A4603F001056A40FE
:103BF00022A902A8019201F0F3FA019A2AA90AA8BF
:103C000001F0EEFA0AAA02A932A801F075FE0AAA8A
:103C1000104602A901F0A8FE2AAA22A93AA801F09A
:103C20006BFE2AAA104622A901F09EFE3AA9084678
:103C30000AAA01F0D5FE2AA9084632AA01F0D0FE50
:103C40003AAA2AA922A801F057FE2AA93AAA0846A8
:103C500001F08AFE22A9084601F0C0FE2AA9084602
:103C600001F0BCFE2AA91AAA084601F0B9FE32A941
:103C7000084601F0B3FE0AA93AA801F0AFFE3AAA3D
:103C800032A902A801F0ACFE32A93AAA084601F016
:103C90006BFE32A90AA801F0B1FF0AA908463AAAA8
:103CA00001F02AFE0AA9013C32AA084601F098FE5A
:103CB000631C97D146454FF0070491D10AA90846E5
:103CC000012200F09DFB02A90AAA084601F088FE25
:103CD00002A9484600F07CFB42B0BDE8F08700BF77
:103CE000014AFFF729BF00BFB0A2000030B599B06C
:103CF0000546684600F096FC6946044608A803F0AD
:103D000091FB08A90443284603F0CCFA204619B0D9
:103D100030BD00BF10B52022B0B004460DEB02004C
:103D200000F0DEFF9DF83F309DF8202003F07F0378
:103D300043F0400322F0070208A968468DF83F309F
:103D40008DF8202000F0C8FC694618A800F0BCF9E6
:103D500018A9204600F096F930B010BD2DE9F041C9
:103D60000D46A2B01646044620312A4602A81F4638
:103D700006F12008019101F0F7FD01992A460AA8F1
:103D800001F0BAFD4146324612A801F0EDFD414670
:103D900032461AA801F0B0FD3A461AA912A801F05D
:103DA0001FFA02A912AA084601F01AFE0AA91AAAC5
:103DB000084601F015FE4246314612A801F010FEF9
:103DC00012A905F16002084601F00AFE12A9084690
:103DD000144A01F005FE05F1400211461AA801F04F
:103DE0008BFD02AA0AA9204601F0BEFD04F12005C0
:103DF00002AA0AA904F1600001F07EFD40342846C1
:103E000012AA1AA901F0B0FD12AA1AA9204601F0BF
:103E100073FD3A462946204601F0E2F922B0BDE89A
:103E2000F08100BF10A9000070B598B0044601F100
:103E3000200668460D4601F0D1FD314608A801F084
:103E4000CDFD05F1400110A801F0C8FD10AA1146F2
:103E5000104601F051FD32462946204601F04CFD46
:103E600004F160052146204601F0B8FD284608AA65
:103E7000694601F041FD04F140062A4621462046EC
:103E800001F072FD08A930466A4601F06DFD10AAE6
:103E9000314604F1200001F067FD6846202101F061
:103EA000F3FA2A466946284601F05EFD18B070BD57
:103EB0002DE9F04102EBE27585EAE27582B00C462D
:103EC0000021064600F1200700F05CFA691EC90FC8
:103ED000384600F057FA0F4B03EB442440344FF0C0
:103EE000010885EA0802013AD20F214630460192C4
:103EF00008F1010801F008F904F12001019A38469F
:103F000001F002F9B8F1090F04F14004E9D102B05F
:103F1000BDE8F081D0A200002DE9F04101EBE1768F
:103F2000074682B086EAE176002100F02BFA07F11D
:103F30002008711EC90F404600F024FA0C4D0124E0
:103F400086EA0402013AD20F29463846019201342A
:103F500001F0DAF805F12001019A404601F0D4F8A9
:103F6000092C05F14005EBD102B0BDE8F08100BF9E
:103F700010A700002DE9F0410446B0B00D460A46F6
:103F8000684604F160080021FFF792FF04F1200663
:103F90004246214628A801F023FD04F1400732469D
:103FA000214610A801F01CFD4246394618A801F030
:103FB00017FD3A46314620A801F012FDEB0F2046CE
:103FC0006A4610A9FFF7CAFE30B0BDE8F08100BF15
:103FD0002DE9F0410446B0B00D460A46684604F1AA
:103FE00060080121FFF764FF04F1200642462146E4
:103FF00028A801F0F5FC04F140073246214610A83C
:1040000001F0EEFC4246394618A801F0E9FC3A46B8
:10401000314620A801F0E4FCEB0F20466A4610A9C7
:10402000FFF79CFE30B0BDE8F08100BF2DE9F04104
:10403000B0B0044600F1600868460D4604F1200661
:10404000FFF76AFF4246214628A801F0C9FC04F1A7
:1040500040073246214610A801F0C2FC42463946CC
:1040600018A801F0BDFC3A46314620A801F0B8FC82
:10407000EB0F20466A4610A9FFF770FE30B0BDE88E
:10408000F08100BF30B599B004460D4610A840310C
:10409000012200F0B5F9294610AA684601F0A0FCFB
:1040A00010AA05F1200108A801F09AFC08A92046F1
:1040B00000F08EF9684600F06FF9E37F83EAC010E4
:1040C000E07719B030BD00BF2DE9F041B0B0E8464F
:1040D0000446404600F030FB04F140069DF93F10D5
:1040E0002046FFF719FF3046012100F04BF904F19B
:1040F00020070DF11505214610A8FFF795FE18AA17
:1041000010A9204601F06CFC28AA20A9384601F02D
:1041100067FC20AA18A9304601F062FC214610A8CD
:10412000FFF782FE18AA10A9204601F059FC28AA20
:1041300020A9384601F054FC20AA18A9304601F005
:104140004FFC214610A8FFF76FFE18AA10A92046C1
:1041500001F046FC28AA20A9384601F041FC20AA1B
:1041600018A9304601F03CFC214610A8FFF75CFE80
:1041700015F9011D10A8FFF7FDFE95F9151010A8FF
:10418000FFF726FF95F92A1010A8FFF74FFF18AA8E
:1041900010A9204601F024FC28AA20A9384601F0E5
:1041A0001FFC20AA18A9304601F01AFCA845A2D18C
:1041B00030B0BDE8F08100BF70B588B004460D4650
:1041C00068462021164601F05FF900232946204663
:1041D0002022009301F050F92A466946684601F012
:1041E00097F932466946204600F0FAFF08B070BDE4
:1041F000CB691BBA03608B691BBA43604B691BBA5E
:1042000083600B691BBAC360CB681BBA03618B6800
:104210001BBA43614B681BBA83610B681BBAC3614D
:10422000704700BF70B598B00C46054610A801F065
:104230009BF9224610A9684601F098F9694610A832
:1042400001F092F910A9084601F08EF96A4610A90A
:1042500008A801F08BF908A910A801F085F910A9A8
:10426000084601F081F910A9084601F07DF910A96E
:10427000084601F079F910A908AA084601F076F974
:1042800010A9084601F070F910A9084601F06CF970
:1042900010A96A4608A801F069F9052608A910A81E
:1042A00001F062F910A9084601F05EF9013E10A97B
:1042B000F5D108AA084601F059F9052610A90846C3
:1042C00001F052F910A9084601F04EF9013EF5D16E
:1042D00010A908AA084601F049F910A908A801F098
:1042E00043F908A9084601F03FF908A96A4668465B
:1042F00001F03CF91026694610A801F035F910A923
:10430000084601F031F9013E10A9F5D122460846D0
:1043100001F02CF9402610A9084601F025F910A952
:10432000084601F021F9013EF5D110A96A46084678
:1043300001F01CF9102610A9084601F015F910A982
:10434000084601F011F9013EF5D110A96A46084668
:1043500001F00CF9102610A9084601F005F910A982
:10436000084601F001F9013EF5D110A908AA084656
:1043700001F0FCF8224610A9284601F0F7F818B021
:1043800070BD00BF0023C0E90013C0E90233C0E9DB
:104390000433C0E90633704710B5044601F072FCDF
:1043A000206800F0010010BD0B6803604B6843609B
:1043B0008B688360CB68C3600B6903614B694361A1
:1043C0008B698361CB6923F00043C361704700BFF1
:1043D00038B50C460546084601F054FC23682B60AE
:1043E00063686B60A368AB60E368EB6023692B6173
:1043F00063696B61A369AB61E369EB6138BD00BFC1
:10440000F0B5A1B00446684616460D4601F0E6FA3E
:10441000694618A801F0E2FA18A9084601F0DEFA88
:104420002A4618A908A801F0DBFA6A4608A96846D6
:1044300001F0D6FA694618A801F0D0FA08AA104689
:1044400018A901F0CDFA08A918A801F0C7FA18A90F
:10445000084601F0C3FA18A9084601F0BFFA18A9E6
:10446000084601F0BBFA18A9084601F0B7FA08AAF5
:1044700018A9104601F0B4FA022708A900E00127A4
:1044800018A801F0ABFA18A9084601F0A7FA18A974
:10449000084601F0A3FA18A9084601F09FFA18A9E6
:1044A000084601F09BFA012F18A9E8D110A808AA24
:1044B00001F096FA042710A918A801F08FFA18A99C
:1044C000084601F08BFA18A9084601F087FA18A9E6
:1044D000084601F083FA18A9084601F07FFA013F67
:1044E00018A9E9D110AA084601F07AFA022700E0DB
:1044F000012718A9084601F071FA18A9084601F029
:104500006DFA18A9084601F069FA18A9084601F0E1
:1045100065FA18A9084601F061FA012FE8D118A937
:1045200008AA10A801F05CFA0A2710A918A801F03F
:1045300055FA18A9084601F051FA18A9084601F0E1
:104540004DFA18A9084601F049FA18A9084601F0E1
:1045500045FA013F18A9E9D110AA08A801F040FACC
:10456000142708A918A801F039FA18A9084601F07B
:1045700035FA18A9084601F031FA18A9084601F0E1
:104580002DFA18A9084601F029FA013F18A9E9D126
:1045900008AA084601F024FA0A2718A9084601F0DB
:1045A0001DFA18A9084601F019FA18A9084601F0E1
:1045B00015FA18A9084601F011FA18A9084601F0E1
:1045C0000DFA013FE9D118A9084610AA01F008FA2E
:1045D00018A9084666B901F001FA18A9084601F0C1
:1045E000FDF92A4618A9204601F0FAF921B0F0BDDC
:1045F00001F0F4F918A9084601F0F0F918A90846E5
:1046000001F0ECF918A9084601F0E8F918A90846E4
:1046100001F0E4F96A4618A9204601F0E1F921B059
:10462000F0BD00BF70B50B68124E1BBAC3614B687A
:104630001BBA83618B681BBA4361CB681BBA0361E9
:104640000B691BBAC3604B691BBA83608B691BBAC9
:104650004360CB691BBA036032460146044600F052
:1046600033FD0546314620462A4600F04DFD681EC2
:1046700070BD00BF30A90000F0B5D1E908328E6AE4
:10468000CD69144F8DB00C46110F41EA06114FEA67
:10469000137C1B014CEA021C43EA15733A4605469B
:1046A000029104A86946360FCDF804C00093039622
:1046B00000F0A2FD009B21461B0704AA28460B938D
:1046C00000F002FDEA693946D20F284600F01CFDD1
:1046D0000DB0F0BD50A90000F0B54B078DB01AD158
:1046E000D1E90023D1E90245CDE90023D1E90467EE
:1046F000D1E90623CDE90245CDE90467CDE90623DA
:104700000022002300246946CDE908230A94FFF71C
:10471000B3FF0DB0F0BD4C688A68CB680E694D6977
:10472000019402928C69CA6903930B680093CDE9E6
:104730000465CDE90642E3E7F0B40025471E2C46A8
:104740002E46E30814F0070F08BF51F8235005F078
:104750000F03334403F1080202F47F6601349B1B0C
:104760003F2C4FEA121607F8013F4FEA1515C2F326
:104770000712E6D12A4480F83F20F0BC704700BF02
:104780002DE9F04FBDB07F2A0B9240F2798182462D
:10479000A2F18004DAF818300193DAF81C300293A1
:1047A000DAF820300393DAF824300493DAE90AB314
:1047B000D0E90020DAE9046524F07F0489468034DA
:1047C000DAE902174C440593DAE90D8EDAF8303055
:1047D00006930A94DAF83C30CDF81CB014462A4609
:1047E0003D461746D9F80C200C94D9F80840089497
:1047F0000D901197D9F81400099017BA089A1096DD
:1048000016BA099A0F9515BA019A1292029A139242
:10481000039A1492049A1592079A1692059A17927F
:10482000069AD9F804B0D9F800C0D9F81040D9F8E0
:104830001C000E91D9F81810CDE91828CDE91AE31B
:10484000D9F848300193D9F854300293D9F8503050
:104850000393D9F85C300493D9F858300593019B41
:10486000D9F82080D9F82CE0D9F84C209BFA8BFBA2
:104870009CFA8CFC24BA00BA09BA1BBACDE91CBC5C
:10488000CDE91E76D9F824B0D9F828C0D9F834700B
:10489000D9F83060CDE92054CDE92201D9F83C5057
:1048A000D9F83840D9F84400D9F840102F93029B2A
:1048B0001BBA3093039B1BBA3193049B1BBA3293F0
:1048C000059B98FA88F89EFA8EFE9CFA8CFC3FBAFB
:1048D00036BA2DBA24BA1BBA9BFA8BFBCDE926EC6B
:1048E000CDE92876D9F860E0D9F86CC0D9F86870BD
:1048F000D9F874603393CDE92A54D9F87830D9F8CF
:104900007050D9F87C40CDE924B8D9F8648000BA59
:1049100009BA12BA9EFA8EFE9CFA8CFC1BBACDE93B
:104920002C012E921CA90CAA574898FA88F83FBA75
:1049300036BA2DBA24BACDE9348ECDE936C7CDE9E1
:104940003865CDE93A4301F0D3F91CA801F0DCFF4A
:104950000CAA1CA94D4801F0CBF91CA801F0D4FF0A
:104960000CAA1CA94A4801F0C3F91CA801F0CCFF0D
:104970000CAA1CA9474801F0BBF91CA801F0C4FF10
:1049800045480CAA1CA901F0B3F9DDE90C40DAF89E
:104990000020DAF808300E99119F1419DAF8042073
:1049A000CAF80040DAE9035642EB000059180F9BA1
:1049B000DAF8242043EB0505109BF618DAF81430DA
:1049C00043EB0707DAF81830CAF814709C46129BBC
:1049D0001CEB03030193DAF81C309C46139B4CEB51
:1049E000030CDAF82030CDF808C09C46149B1CEB71
:1049F000030C159BCDF80CC043EB0202019B049203
:104A0000CAE90101CAE90356CAF81830029BCAF87C
:104A10001C30CAE908C2169BDAF82820D31807937D
:104A2000179ACAF82830DAF82C3053410593189AAF
:104A3000CAF82C30DAF830309B180693199ACAF865
:104A40003030DAF8343043EB0208DAF838201B9BB8
:104A5000CAF8348094461A9A1CEB020EDAF83C200D
:104A600042EB03030A9A09F180099145CAE90EE372
:104A70007FF4B8AE0B9B03F07F003DB0BDE8F08F34
:104A800010463DB0BDE8F08F70A90000F0A900000D
:104A900070AA0000F0AA000070AB00002DE9F04100
:104AA000D1F804C00D68CC688A684B690F69CE697B
:104AB000B0B080469CFA8CFC2DBA24BA12BA1BBA4C
:104AC000CDE910C5CDE913231294D8E90223D8E922
:104AD00000453FBA36BACDE91576CDE90045D8E9AB
:104AE0000467D8E90645CDE90223D8E90823CDE9D2
:104AF0000467CDE90645D8E90A67D8E90C45CDE950
:104B000008238869D8E90E2300BACDE90A67CDE900
:104B10000C451790CDE90E23CF6A8E6A4D6B0C6B56
:104B2000C86B8A6B4B6CD1F824E0D1F820C03FBA37
:104B300036BA2DBA24BA00BA12BA1BBA1A971B9603
:104B40000F6CCE6C1C951D948D6C4C6D1E901F923D
:104B5000086DCA6D20938B6D9EFA8EFE9CFA8CFCBC
:104B60003FBA36BA2DBA24BA00BA12BA1BBACDE986
:104B70002176CDE92354CDE92502CDE918EC279320
:104B8000D1F864E0486FCA6F534CD1F860C0CF6E63
:104B90008E6E0D6F8B6F00BA11BA9EFA8EFE9CFA64
:104BA0008CFC1BBA6A462C902E91204610A93FBA65
:104BB00036BA2DBA2F93CDE928ECCDE92A762D957A
:104BC00001F096F810A801F09FFE6A4610A904F1C2
:104BD000800001F08DF810A801F096FE6A4610A939
:104BE00004F5807001F084F810A801F08DFE6A468B
:104BF00010A904F5C07001F07BF810A801F084FE44
:104C00006A4610A904F5007001F072F8D8F80000A7
:104C1000009DD8F80410019ED8F80830029CD8F8FE
:104C20000C20D8F81070401946EB0101039DC8F81C
:104C300000000498C8F804101B190599D8F814400E
:104C4000D8F81860C8F8083045EB0202069B079DAB
:104C5000C8F80C203F1844EB0101D8F81C00089A52
:104C6000C8F81070D8F82070C8F81410F618099910
:104C7000D8F82430C8F8186045EB0000BA1841EBAA
:104C80000303C8E90702C8F82430D8E90A01DDE9BE
:104C90000A56D8F830300C9CD8F83420D8F8387040
:104CA000401946EB01010D9DC8F828000E98C8F880
:104CB0002C101B190F99D8F83C40C8F8303045EB40
:104CC00002023818C8E90D2044EB01010020C8F8A1
:104CD0003C1030B0BDE8F08170A900000000000079
:104CE0002DE9F04DC4A7D7E900670FF2143BDBE9CB
:104CF00000ABB4B0CDE90467C3A7D7E90067CDE93D
:104D000002AB0FF20C3BDBE900ABCDE90867C2A7B1
:104D1000D7E90067CDE906AB0FF2043BDBE900AB56
:104D2000CDE90C67C0A7D7E90067CDE90AAB0FF260
:104D3000003BDBE900ABCDE910670026CDE90EAB07
:104D40001446804633923296002A7FD180238DF814
:104D500048307A27012002AD12A900F140032B440C
:104D600027F003021A44002643F8046B9342FBD158
:104D700027F00303BB42184413D0431C34AA024457
:104D800000267B2B02F8886C0BD034AA13447928B8
:104D900000F1020203F8886C03D034AB1A4402F825
:104DA000886C620F630D8DF8C3208DF8C430620BE0
:104DB00063092846E4008DF8C5208DF8C6308DF8CB
:104DC000C740FFF76BFEDDE90641DDE90823DDE9B9
:104DD0000207DDE9046509BA12BA00BA3FBA36BA69
:104DE0002DBA24BA1BBAC8F81010C8F81C20DDE987
:104DF0000F12C8F80400C8F800700D980E9FC8F88C
:104E00000C60C8F808500A9E0B9DC8F81440C8F8FA
:104E100018300C9C119B36BA2DBA24BA00BA3FBA8E
:104E200009BA12BA1BBAC8F82460C8F82050C8F8EA
:104E30002C40C8F82800C8F83470C8F83010C8F8FA
:104E40003C20C8F8383034B0BDE8F08D02AD2846BB
:104E50000F46FFF795FC241A03463C44002800F057
:104E6000C180421E022A40F2BB8020F0030712A933
:104E700027440846224652F8046B40F8046BBA42B5
:104E8000F9D123F003069E42344414D034AA3244AC
:104E9000207802F8880C721C93420CD934A8024482
:104EA0000236607802F8880CB34204D934AA16445A
:104EB000A27806F8882C34AA581C1A44802470283A
:104EC000329302F8884C7CD97F2873D834AA1044D6
:104ED0007E2B4FF0000200F8882C03F1020069D00D
:104EE00034AC20447D2B03F1030400F8882C61D0FE
:104EF00034A804447C2B03F1040004F8882C59D016
:104F000034AC20447B2B03F1050400F8882C51D0ED
:104F100034A804447A2B03F1060004F8882C49D005
:104F200034AC2044792B03F1070400F8882C41D0DD
:104F300034A80444782B03F1080004F8882C39D0F5
:104F400034AC2044772B03F1090400F8882C31D0CD
:104F500034AA1444762B4FF0000204F8882C03F195
:104F60000A0027D034AC2044752B03F10B0400F861
:104F7000882C1FD034A80444742B03F10C0004F8CF
:104F8000882C17D034AC2044732B03F10D0400F8A7
:104F9000882C0FD034A80444722B03F10E0004F8BF
:104FA000882C07D034AC2044702B00F8882C01D119
:104FB0008DF8C72028460191FFF770FD7A280199E6
:104FC0000CD8431C7B2BC0F17A02C0F17B0788BF51
:104FD0000127022A339C3FF6C0AECFE6339CE0E6C1
:104FE00012A953E780223290339C8DF8482001208B
:104FF0007A2712A9B1E600BF3BA7CA8485AE67BB7A
:1050000008C9BCF367E6096AF1361D5F3AF54FA59A
:105010002BF894FE72F36E3C1F6C3E2B8C68059B44
:10502000D182E6AD7F520E5179217E1319CDE05B1E
:105030006BBD41FBABD9831F70B491E87800B2E837
:1050400002105B1854EB0C04B2E802104D4156EB11
:105050000C0680E878008041013070BC704700BFCA
:1050600070B491E87800B2E802105B1A74EB0C049B
:10507000B2E802108D4176EB0C0680E878008041A2
:10508000404270BC704700BF2DE9F00791E8F80777
:10509000B2E802105B1854EB0C04B2E802104D4168
:1050A00056EB0C06B2E802104F4158EB0C08B2E880
:1050B000021059EB01095AEB0C0A80E8F80780410D
:1050C0000130BDE8F00770472DE9F00791E8F807D7
:1050D000B2E802105B1A74EB0C04B2E802108D41C6
:1050E00076EB0C06B2E802108F4178EB0C08B2E8C0
:1050F000021079EB01097AEB0C0A80E8F80780418D
:105100004042BDE8F00770472DE9F007524290E8B1
:105110007800B1E880071740DB1918EA020854EB61
:10512000080419EA020955EB09051AEA020A56EBC6
:105130000A0678C090E87800B1E8800717407B4104
:1051400018EA020854EB080419EA020955EB0905AC
:105150001AEA020A56EB0A0678C080410130BDE81F
:10516000F00770472DE9F007524290E87800B1E867
:1051700080071740DB1B18EA020874EB080419EAE1
:10518000020975EB09051AEA020A76EB0A0678C0ED
:1051900090E87800B1E880071740BB4118EA0208A0
:1051A00074EB080419EA020975EB09051AEA020A08
:1051B00076EB0A0678C080414042BDE8F0077047B0
:1051C00090E8300091E8C000A31B1340E41AF618E1
:1051D000EB1B1340ED1AFF1830C0C0C1704700BF71
:1051E000F0B55242FFF7ECFFFFF7EAFFFFF7E8FFE9
:1051F000FFF7E6FFF0BD00BF2DE9F0073AC91668DA
:10520000A1FB069A4FF0000CE3FB06AC4FF0000741
:10521000E4FB06C74FF00008E5FB067840F8049B66
:1052200056684FF00009E1FB06A9E3FB66C9E4FB01
:105230006679E5FB668940F804AB96684FF0000A92
:10524000E1FB06CAE3FB667AE4FB668AE5FB669A45
:1052500040F804CBD6684FF0000CE1FB067CE3FB82
:10526000668CE4FB669CE5FB66AC80E88017BDE8D5
:10527000F00770470A4600BF2DE9F04F40EC171ABF
:1052800092EC080A1EC910EE100AA1FB00784FF03C
:105290000009E2FB00894FF0000AE3FB009A4FF09F
:1052A000000BE4FB00AB12EE100A4FF0000CE1FB28
:1052B00000BC4FF0000EE2FB00CE4FF00005E3FB18
:1052C00000E54FF00006E4FB005604EE107A10EE05
:1052D000900A4FF00007E1FB0087E2FB6097E3FBD9
:1052E00060A7E4FB60B712EE900AE1FB60C7E2FB47
:1052F00060E7E3FB6057E4FB606704EE908A11EE21
:10530000100A4FF00008E1FB0098E2FB60A8E3FB05
:1053100060B8E4FB60C813EE100AE1FB60E8E2FB52
:105320006058E3FB6068E4FB607805EE109A11EECC
:10533000900A4FF00009E1FB00A9E2FB60B9E3FB32
:1053400060C9E4FB60E913EE900AE1FB6059E2FBFF
:105350006069E3FB6079E4FB608905EE90AA17EED3
:10536000101A01F110011EC910EE100A4FF0000AC8
:10537000E1FB00BAE2FB60CAE3FB60EAE4FB605ACF
:1053800012EE100AE1FB606AE2FB607AE3FB608ADE
:10539000E4FB609A06EE10BA10EE900A4FF0000B94
:1053A000E1FB00CBE2FB60EBE3FB605BE4FB606BEB
:1053B00012EE900AE1FB607BE2FB608BE3FB609BFB
:1053C000E4FB60AB06EE90CA11EE100A4FF0000C41
:1053D000E1FB00ECE2FB605CE3FB606CE4FB607C07
:1053E00013EE100AE1FB608CE2FB609CE3FB60AC17
:1053F000E4FB60BC07EE10EA11EE900A4FF0000EDD
:10540000E1FB005EE2FB606EE3FB607EE4FB608E2E
:1054100013EE900AE1FB609EE2FB60AEE3FB60BE30
:10542000E4FB60CE17EE900AA0EC074A80E8E05F4C
:10543000BDE8F08F30B44FF0000310F8014B11F8C5
:10544000015B013A84EA050443EA0403F5D1A3F1C0
:1054500001034FEAD37030BC704700BF4FF0000328
:1054600010F8012B013943EA0203F9D1A3F101033A
:105470004FEAD370704700BF11F8013B00F8013BC1
:10548000013AF9D1704700BF002200F8012B013921
:10549000FBD170472DE9F00791E8F807B2E8021058
:1054A0005B1854EB0C04B2E802104D4156EB0C06AD
:1054B000B2E802104F4158EB0C08B2E8021059EB69
:1054C00001095AEB0C0A8941B3F1FF3374F1FF343F
:1054D00075F1FF3576F1000677F1000778F10008E5
:1054E00079F101097AF1FF3A51F100015B184C4161
:1054F0004D4156F1000657F1000758F1000859EBED
:10550000D1795AEB010A80E8F807BDE8F007704747
:105510002DE9F00791E8F807B2E802105B1A74EB86
:105520000C04B2E802108D4176EB0C06B2E80210D2
:105530008F4178EB0C08B2E8021079EB01097AEBA5
:105540000C0A89415B184C414D4156F1000657F158
:10555000000758F1000859EBD1795AEB010A80E8AD
:10556000F807BDE8F00770470A4600BF2DE9F04F85
:1055700040EC171A92EC080A1EC910EE100AA1FBA3
:1055800000784FF00009E2FB00894FF0000AE3FBCE
:10559000009A4FF0000BE4FB00AB12EE100A4FF044
:1055A000000CE1FB00BC4FF0000EE2FB00CE4FF020
:1055B0000005E3FB00E54FF00006E4FB005604EEB7
:1055C000107A10EE900A4FF00007E1FB0087E2FB33
:1055D0006097E3FB60A7E4FB60B712EE900AE1FB83
:1055E00060C7E2FB60E7E3FB6057E4FB606704EE43
:1055F000908A11EE100A4FF00008E1FB0098E2FBE0
:1056000060A8E3FB60B8E4FB60C813EE100AE1FB9E
:1056100060E8E2FB6058E3FB6068E4FB607805EE5D
:10562000109A11EE900A4FF00009E1FB00A9E2FB8D
:1056300060B9E3FB60C9E4FB60E913EE900AE1FBAB
:105640006059E2FB6069E3FB6079E4FB608905EE89
:1056500090AA17EE101A01F110011EC910EE100ADF
:105660004FF0000AE1FB00BAE2FB60CAE3FB60EA2C
:10567000E4FB605A12EE100AE1FB606AE2FB607A1A
:10568000E3FB608AE4FB609A06EE10BA10EE900A23
:105690004FF0000BE1FB00CBE2FB60EBE3FB605B58
:1056A000E4FB606B12EE900AE1FB607BE2FB608B37
:1056B000E3FB609BE4FB60AB06EE90CA11EE100AC0
:1056C0004FF0000CE1FB00ECE2FB605CE3FB606C84
:1056D000E4FB607C13EE100AE1FB608CE2FB609C53
:1056E000E3FB60ACE4FB60BC07EE10EA11EE900A4D
:1056F0004FF0000EE1FB005EE2FB606EE3FB607EBC
:10570000E4FB608E13EE900AE1FB609EE2FB60AE6C
:10571000E3FB60BEE4FB60CE53EC162A17EE104AA2
:1057200012EB0A0253EB0B0354EB0C0455EB0E0582
:10573000002040F1000012EB0B0253EB0C0354EB82
:105740000E0455EB0E0546410020474158EB00087A
:1057500059EB0A0940F10000B2EB0E0273F10003AD
:1057600074F1000475EB0A0576EB0B0677EB0C077A
:1057700078EB0A0879EB0C0960F10000B5EB0B053A
:1057800076EB0C0677EB0E0778EB0B0879EB0E093E
:1057900060F100006FEAE07AB2EB0A0273EB0A03F1
:1057A00074EB0A0475F1000576F1000677F1000745
:1057B00078EBDA7879EB0A0960F100004FEAE07AD9
:1057C00012EB0A0253EB0A0354EB0A0455F10005ED
:1057D00056F1000657F1000758EBDA7859EB0A0941
:1057E00040F100004FEAE07A12EB0A0253EB0A03A1
:1057F00054EB0A0455F1000556F1000657F1000775
:1058000058EBDA7859EB0A095BEC14AA51EC150A4B
:105810001AEB060A5BEB070B50EB080051EB090192
:105820005FF0000C4CF1000C1AEB070A5BEB080B65
:1058300050EB090051EB090152EB0C025FF0000C38
:1058400053EB0C0354EB0C0475414CF1000CBAEB18
:10585000090A7BF1000B70F10000B141BA4173EB12
:105860000803B44175EB08056CF1000CC91B72EB21
:10587000080273EB0903BC4175EB09056CF1000CE0
:105880006FEAEC76BAEB060A7BEB060BB04171F1DE
:10589000000172F1000273F1000374EBD674B5419C
:1058A0006CF1000C4FEAEC761AEB060A5BEB060B88
:1058B000704151F1000152F1000253F1000354EB29
:1058C000D67475414CF1000C4FEAEC761AEB060ADF
:1058D0005BEB060B704151F1000152F1000253F1F4
:1058E000000354EBD674754117EE907AA7E8000CCC
:1058F00087E83F00BDE8F08F2DE9F00791E8F80751
:10590000B2E802105B1854EB0C04B2E802104D41EF
:1059100056EB0C06B2E802104F4158EB0C08B2E807
:10592000021059EB01095AEB0C0A4FF0260261EB09
:10593000010122EA01015B1854F1000455F1000550
:1059400056F1000657F1000758F1000859F1000917
:105950005AF1000A61EB010122EA01010B4480E8DF
:10596000F807BDE8F00770472DE9F00791E8F80760
:10597000B2E802105B1A74EB0C04B2E802108D411D
:1059800076EB0C06B2E802108F4178EB0C08B2E817
:10599000021079EB01097AEB0C0A4FF0260261EB59
:1059A000010102EA01015B1A74F1000475F10005BE
:1059B00076F1000677F1000778F1000879F1000927
:1059C0007AF1000A61EB010102EA0101A3EB010394
:1059D00080E8F807BDE8F007704700BF0A4600BF3F
:1059E0002DE9F04F40EC171A92EC080A1EC910EE90
:1059F000100AA1FB00784FF00009E2FB00894FF08C
:105A0000000AE3FB009A4FF0000BE4FB00AB12EE40
:105A1000100A4FF0000CE1FB00BC4FF0000EE2FB5F
:105A200000CE4FF00005E3FB00E54FF00006E4FB7D
:105A3000005604EE107A10EE900A4FF00007E1FBDA
:105A40000087E2FB6097E3FB60A7E4FB60B712EE20
:105A5000900AE1FB60C7E2FB60E7E3FB6057E4FB11
:105A6000606704EE908A11EE100A4FF00008E1FB27
:105A70000098E2FB60A8E3FB60B8E4FB60C813EEAB
:105A8000100AE1FB60E8E2FB6058E3FB6068E4FBBE
:105A9000607805EE109A11EE900A4FF00009E1FBD4
:105AA00000A9E2FB60B9E3FB60C9E4FB60E913EE27
:105AB000900AE1FB6059E2FB6069E3FB6079E4FB7B
:105AC000608905EE90AA17EE101A01F110011EC9A7
:105AD00010EE100A4FF0000AE1FB00BAE2FB60CAC8
