:1000000000000420750300005D0300005F03000092
:1000100061030000630300006503000000000000AE
:100020000000000000000000000000006703000066
:1000300069030000000000006B0300006D03000076
:100040006F0300006F030000791900006F030000C8
:100050006F0300006F0300006F0300006F030000D8
:100060006F0300006F0300006F0300006F030000C8
:100070006F030000951A00006F0300006F0300007B
:100080006F0300006F0300006F0300006F030000A8
:100090006F0300006F0300006F0300006F03000098
:1000A0006F0300006F0300006F0300006F03000088
:1000B0006F0300006F03000000000000000000005C
:1000C0006F0300006F0300006F0300006F03000068
:1000D0006F0300006F0300006F0300006F03000058
:1000E0006F0300006F0300006F03000000000000BA
:1000F000000000006F030000000000006F0300001C
:1001000000000000000000000000000000000000EF
:1001100000000000000000000000000000000000DF
:1001200000000000000000000000000000000000CF
:1001300000000000000000000000000000000000BF
:1001400000000000000000000000000000000000AF
:10015000000000000000000000000000000000009F
:10016000000000000000000000000000000000008F
:10017000000000000000000000000000000000007F
:10018000000000000000000000000000000000006F
:10019000000000000000000000000000000000005F
:1001A000000000000000000000000000000000004F
:1001B000000000000000000000000000000000003F
:1001C000000000000000000000000000000000002F
:1001D000000000000000000000000000000000001F
:1001E000000000000000000000000000000000000F
:1001F00000000000000000000000000000000000FF
:10020000354936480A1A02D0072291438D463449AF
:1002100034480A1A06D00722914381F30988022242
:1002200082F3148830483149314A00F044F83148AB
:100230003149324A00F03FF831483249324A00F041
:100240003AF832483249334A00F035F832483349F7
:10025000334A00F030F833483349344A00F02BF881
:1002600033483449344A00F026F8344834490022EF
:1002700000F02CF833483449002200F027F83348C6
:100280003349091A082902DB002202604160314A21
:1002900090471F481F49884205D00268043003B4C4
:1002A000904703BCF7E700208646EC46002000217B
:1002B000294A9047FEE7884207D0521A05D00378B2
:1002C00001300B700131013AF9D17047884202D0F8
:1002D00002700130FAE770470000042000E00320BC
:1002E000000004200000042008830000000000201B
:1002F00060000020D0030000D0030000785300000D
:1003000008830000000000200000002000540000CE
:10031000005400000054000000540000005400008D
:100320000054000000540000005400000883000046
:100330006883000060000020600000206000002052
:10034000E4110020E4110020E4110020E411002059
:10035000E43100209D030000812A0000FEE7FEE753
:10036000FEE7FEE7FEE7FEE7FEE7FEE7FEE7FEE765
:1003700000F002B8FFF7FCBF0F484FF007018843B9
:1003800085460E4880470E48016841F470010160BF
:10039000BFF34F8FBFF36F8FFFF732BF09480A4992
:1003A0000A4A884207D0521A05D0037801300B70F0
:1003B0000131013AF9D1704700000420054E0000D8
:1003C00088ED00E000540000000000200000002044
:1003D00002F0F0B90021084602F0A0B910F1360F82
:1003E0000AD058B148F2165248F2115310F1380FA2
:1003F00014BF10461846704748F21450704708B5AD
:100400000846114601F032FA002008BD30B5044616
:1004100085B0002001F0EAF9054678B9201D039067
:1004200004F0C8FB0649039800952B462A4604F0C1
:100430001DFC05B0BDE83040FFF7D0BF05B030BDB2
:10044000FF03000008B5043004F0BFFB01F0EEF933
:10045000002008BD08B5043004F09CFCBDE808404D
:10046000FFF7BCBF08B5114604301A4604F0BCFBC8
:10047000BDE80840FFF7B2BF1FB50021039001AAF5
:1004800044F20100CDE9011100F004F805B05DF877
:1004900004FB000010B572B601F060F800F0E6FE53
:1004A0000028FBD1104B114C1149E41AE408240434
:1004B00044F0010001F018F80E4B1B68DB0700D573
:1004C00000BE0D4944F0020001F00EF8BFF34F8F5B
:1004D0000A490B4BCA6802F4E0621343CB60BFF3D6
:1004E0004F8F00BFFDE700BF94530000B4530000DE
:1004F00000540000F0ED00E00C54000000ED00E0BE
:100500000400FA0572B6024A13680133136070479B
:1005100060000020034A1368013B136003B962B610
:10052000704700BF60000020FFF7ECBFFFF7F2BF8D
:1005300030B50A48002301215C0903F01F0250F87E
:10054000245001FA02F201332A43BF2B40F8242041
:10055000F2D1034B0020197030BD00BF64000020B1
:100560007C00002010B5034653E8000F0A4643E81C
:10057000002494F0000FF7D110BD10B5034653E8E6
:10058000002F42EA010043E8000494F0000FF6D186
:1005900010BD10B5034653E8000F00EA010243E81E
:1005A000002494F0000FF6D110BD10B5034653E8B7
:1005B000002F02EB010043E8000494F0000FF6D195
:1005C00010BD10B5034653E8002FA2EB010043E82D
:1005D000000494F0000FF6D110BD0121FFF7CDBF4C
:1005E0000021FFF7D6BF10B590B1D0E90123016813
:1005F0009B1ADBB20A60013BDBB2FF2B026802D11F
:100600000020107110BD11684C1C14600B70F2E7D3
:100610000E20F7E738B504460020FFF785FF226873
:1006200063681168994213D9481E106011F8015C83
:10063000E368218A01FB0535A36811791B1ADBB237
:10064000994200D213710020FFF770FF284638BD91
:100650000025F8E738B5054600200C46FFF764FF93
:100660002A681368591C1160E968641A298AB4FB66
:10067000F1F41C70BDE838400020FFF757BF8268D6
:1006800010B504462AB14369016800699847002300
:10069000A36010BD0EB403B5039921B104AB01AA48
:1006A000019300F077F802B05DF804EB03B07047F7
:1006B0000A2938B504460D4602D10D21FFF7F8FF8F
:1006C000A3682268591CA160D554D4E901329A422A
:1006D00004D32046BDE83840FFF7D1BF38BD000045
:1006E0002DE9F84F9846DDE90A43154682460F4644
:1006F0000A464FF00109AA420FD2C14538BFC14690
:1007000013F0010B01D16CB900240126B8F1010FDF
:100710001BD908F1FF386E43F8E709F10109B2FB74
:10072000F5F2E8E79B070ED5B8F1000F0CBF3026B5
:100730002026A145E9D2013C31465046FFF7B8FFDB
:10074000002CF6D1E0E72026F3E7B7FBF6F39D4255
:10075000E1D9DFF83C80B7FBF6F3504618F80310F8
:1007600006FB1377FFF7A4FF3346AB42B6FBF5F663
:10077000F1D2BBF1000F02D00CB1A14501D3BDE80D
:10078000F88F20215046013CFFF792FFF4E700BFAD
:10079000225400002DE9F74F0546174688460029E8
:1007A00000F0428118F8011B49B92B7B002B00F0A7
:1007B0003B81284603B0BDE8F04FFFF760BF252915
:1007C00040F0B780002698F800302D2B424608F103
:1007D000010823D0302B24D02B2B25D000242A2B0A
:1007E00002F1010123D13B681A1D1B683A601C44C9
:1007F0000A4613782E2B26D101324FF0000A1046FC
:1008000010F8011BA1F1300CBCF1090F1DD80A230F
:1008100003FB0A13A3F1300A0246F0E746F0010693
:10082000D1E746F00206CEE746F00406CBE711F822
:10083000013CA3F130000928DBD80A2202FB043472
:10084000303C0A46CBE74FF0000A12F8011B01F0DA
:10085000FB0068289046F8D0782909D86F290CD871
:10086000632962D022D8252963D0582900F08880D6
:1008700098F80030002B95D197E770390829F7D800
:1008800001A353F821F000BF030A00007108000023
:100890007108000091090000710800006F09000054
:1008A000710800007108000081090000642901D06E
:1008B0006929DDD13A68D2F80090111D89EAE97200
:1008C0003960A2EBE9724FF0010B092A35DCD34500
:1008D00038BFD3462CB1B9F1000F01DB720700D548
:1008E000013CB30702D5BAF1000F03D0F00701D4E1
:1008F0004CBB0024B9F1000F2DDAC9F100092D21FC
:100900002846FFF7D5FE06F00302022A04D1BAF109
:10091000000F01D11CBB0024CDE9004653460A223A
:1009200049462846FFF7DCFEA2E73B681A1D197806
:100930003A602846FFF7BCFE9AE70A230BF1010B49
:10094000B2FBF3F2C1E7A345D4D220212846013CF3
:10095000FFF7AEFECCE77107D5D52B21D0E7A34535
:10096000DAD230212846013CFFF7A2FED2E73968EF
:10097000CDE900460A1D3A6053460A220968D0E7CD
:1009800039680A1D3A60CDE9004653461022F5E762
:100990003B681A1D3A6016F00106D3F8009028D182
:1009A000B9F1000F03D0484604F0B5FC0646B44246
:1009B00000D904BB09F1FF3919F8011F00293FF4E0
:1009C00057AF2846FFF774FEF6E728460136FFF7D3
:1009D0006FFE19F806100029F7D1A642BFF448AF00
:1009E000002C3FF445AF20212846013CFFF760FE74
:1009F000F3E70026EDE720212846013CFFF758FEEB
:100A0000D5E73B681A1D3A60302128461C68FFF77D
:100A10004FFE78212846FFF74BFE00220823CDE940
:100A20000032214610227CE703B0BDE8F08F00BF02
:100A30002DE9F84FB0F806A04579D2F800B09DF83E
:100A400028900AFB05F5043D88460BEB0301A942FB
:100A500003F1040488BFA5EB030BB4FBFAF60746C9
:100A60000AFB1644C2F800B04EB9AAEB04055D4576
:100A700028BF5D46BBF1000F04D1BDE8F88F3F6889
:100A8000013EF1E7043408EB06003C442A46B9F184
:100A9000000F0DD02146ABEB050B04F0BEFBDA4591
:100AA0002E443F6855464FF0000428BF5D46E1E7FD
:100AB00001462046EFE7FFF796BDF8B546790146B7
:100AC000721E0546002393422D6803D30024A642DC
:100AD00002D8F8BD0133F6E70F682846FFF7BAFDE4
:100AE00001343946F3E72DE9F843068ACD1C074661
:100AF000FFF790FD043E35440446B5FBF6F5F0B132
:100B00004FF48073EDB28380C680013D076081465B
:100B10004FF00008A84512D23846FFF77BFD064685
:100B200048B163790133637108F10108C9F8000025
:100B300007608146EEE72046FFF7BFFF34462046B8
:100B4000BDE8F88301210430FFF72FBD10B5012166
:100B500004460430FFF735FD10F0FF0F04D12046A6
:100B6000BDE81040FFF7A9BF10BD1FB503920022DA
:100B7000009203AAFFF75CFF05B05DF804FB1FB508
:100B800003920122009203AAFFF752FF05B05DF81D
:100B900004FB026813685268934291BFD01A8068C0
:100BA0000130801888BFC01A704703682DE9F041F2
:100BB0001F681E6815465A68964286BF83680133CF
:100BC000961B8846C268416888BF9E1BB542044692
:100BD00007FB02110CD86A43404604F01EFBA368D1
:100BE0003D449D4288BF002523681D60BDE8F0811B
:100BF00006FB02F73A46404604F00FFBE2686168E4
:100C0000AD1B6A4308EB070004F007FBECE7036841
:100C100081681A685B688B4234BF01330023D31AA2
:100C2000584258417047F8B5044600200D46FFF77A
:100C30007BFC2046FFF7EBFF10B1237C002B3CD15F
:100C40002268A66853685168B14234BF013100215F
:100C5000516030B11168A068814234BF0131002178
:100C60001160E2686068511E072920D8DFE801F0B2
:100C700004101F141F1F1F182A78C2542046FFF7A4
:100C800088FF23689A68824200D29860002415E0A9
:100C90002A8820F81320F1E72A6840F82320EDE79E
:100CA000D5E9006700EBC300C0E90067E6E7294625
:100CB00002FB030004F0B1FAE0E704240020FFF790
:100CC00035FC2046F8BD37B505460191144682B182
:100CD0000020FFF729FC2846FFF75BFFA04201999F
:100CE0000AD322462846FFF760FF00240020FFF7C2
:100CF0001DFC204603B030BD0524F7E710B50446BF
:100D00000020FFF711FC20680C22002104F0AEFA4D
:100D1000BDE810400020FFF709BC836800225A603C
:100D2000C3E904229A60DA601A60704708B501F0DE
:100D3000D1FDB0FA80F0400908BD43689B681847B0
:100D400008B5436808305A7901F0D3FD002008BD8A
:100D500008B5436808305A7901F0D6FD002008BD77
:100D60002DE9F0430C468DB008469946149F039236
:100D7000FFF7E3FFD4F80480039998F805504D4538
:100D80002A46064628BF4A4604A8029201F0B1FD51
:100D90000C4803F02DF8029A00963B4604A904F192
:100DA000080003F02FF898F805100446384601F0C3
:100DB000B7FD002C48F2165018BF00200DB0BDE85A
:100DC000F08300BF2D0D00002DE9F0410C469CB0D2
:100DD00008461F460392FFF7B0FFD4F8048003993A
:100DE00098F80550BD4228BF3D4606462A4604A84D
:100DF00001F07FFD98F8052022990CA801F084FDF0
:100E000000960CAB2A4604A904F1080003F025F86B
:100E1000002848F2425018BF00201CB0BDE8F08105
:100E20007047000007B5044B0093044A402300F0CC
:100E300032F803B05DF804FB410E00007E00002094
:100E40002DE9F84388461446B2B10F4B0F4E0325E7
:100E5000002743F00109224608EB0701002004F0B7
:100E600049F90744241A48B933782BB14FF47A4032
:100E7000C847013D02D13570BDE8F88301233370C6
:100E8000002CE8D1F8E700BF405400007D000020AE
:100E9000704704F063B9F0B595B01D461646084694
:100EA0000C46FFF74FFE1A9B0D93CDE90865002510
:100EB0002B46082205A920460A958DF82C500C9542
:100EC000FFF75DFE079B0293069B03939DF814308A
:100ED0008DF8115003F00302012A1DD1BDF8142032
:100EE000059DC3F3C203C2F383168DF81030B20020
:100EF00008230EA92046FFF742FEC5F3952508AB4F
:100F00000093324602AB0EA9284600F09BFB204618
:100F1000FFF71CFE15B0F0BD022AF8D1BDF816503F
:100F2000C3F3C203C5F389158DF810300827082DC7
:100F30002E4628BF08263B4632460EA92046FFF71C
:100F40001EFEAD1B08AB02AA31460EA8374400F0C6
:100F5000DDFB002DEBD1DAE77047000007B5044B4D
:100F60000093044A4023FFF796FF03B05DF804FBAB
:100F7000C90F0000BF00002030B5104D0FCD89B063
:100F80006C460FC495E80F0084E80F004FF0FF3364
:100F90000622CDE90023CDE9023309484FF0EB7377
:100FA00000226946069300F0A9FC08B1FFF764FA35
:100FB000044B00221A7009B030BD00BF5454000029
:100FC00000000020BE00002038B50D4B0D4D002064
:100FD00018700D4804782D5DD2B21C4665B10430FE
:100FE00001F0E4F908B1FFF747FA084B1A7812B19B
:100FF0002378002BFBD038BD0C3000F07BFFF1E7ED
:10100000FF000020EC06002000000020BE000020B1
:1010100008B50848084A0378D35C33B1043001F0BE
:1010200041F9BDE80840FFF7A7BF0C3000F006FF0C
:10103000F7E700BF00000020EC060020FFF79CBF90
:1010400038B50A4DFFF725FF0421284600F064FA61
:10105000074B01245C71FFF7F1FF042105F110003B
:1010600000F05AFA034B5C7138BD00BFCC5300004E
:10107000140000201C000020037813F0040216D096
:1010800003F00303012B03D0022B09D0012070478A
:101090000A6800880232C0F3831002440A60F5E750
:1010A0000B684288023303EB92130B60EEE71046A5
:1010B000704700002DE9F04F044685B0861C0020E3
:1010C0000F461546FFF730FA3F4A5168396093687A
:1010D00003F580735B1A924602F21C4702F583699E
:1010E00002F21448B34219D30020002D68D004F056
:1010F0000F039B0143F0050363F30F00DAF804309C
:10110000DAB203321E444AF822000020CAF8046012
:10111000FFF70CFA012005B0BDE8F08F0121384639
:10112000FFF743FA4846FFF758FA4046FFF755FAEB
:10113000DAF808000090C0B203300AEB800069467C
:10114000FFF79AFF009B30BBDAB20AEB8202D1684C
:1011500001919A1C0133DBB20AEB83030092D3F8AE
:101160000CB001F00303012B22D0022B15D08346D3
:101170004046FFF735FA10B1009BCAF808305946CF
:101180003846FFF712FADAF80830DAF8042003F5E7
:1011900080739B1AA6E7D8B2CEE7BDF80630C3F33A
:1011A000891303334FEA1B4B02EB93030093DFE7F2
:1011B000BDF80430C3F383134FEA1B4B1344F5E728
:1011C000A40544F0060099E7D0010020064B07482B
:1011D00010B501221A70FFF76EFC044610B90448DE
:1011E000FFF79BFD204610BDD0010020EC5300000E
:1011F000B854000030B50A4C71B10A4A0A49121BB2
:10120000D20800239A4201D1002030BD31F823508A
:10121000854202D00133F5E7034654F83300F4E782
:1012200094530000CC53000000000020094B01390A
:1012300003EBC000032909D8DFE801F00A02040625
:10124000042070470079704740797047002070474C
:101250000220704794530000034BD3E90130C31AB6
:1012600058425841704700BFD00100202DE9FF418E
:10127000FFF7F2FF0546002840F0E280714CC4F809
:101280001804BFF34F8FA3680093DBB2033304EB62
:1012900083006946FFF7F0FE009B18B1D4F81824CC
:1012A000002A55D0DAB2991C013304EB8202DBB27A
:1012B00004EB8303D268DB68029302F00303022B82
:1012C000019200914FD1BDF806305F48C3F38917F2
:1012D000502F3E4628BF502666F38F1306F10801B3
:1012E000ADF80630FFF7FFFB0546002800F09380BD
:1012F000FFF728FC002301A908222846FFF735FC48
:101300000099CB43DBB20133C9B20331B6EB830F93
:101310004FEA830804EB810122D908234246A6EB59
:1013200008062846FFF721FCF6B2484908F10803F1
:1013300032462846FFF719FC009B033703EB97075B
:101340000097D4F81834002B41D1D4F8106451E040
:1013500062689A4299D8A260284604B0BDE8F0813C
:1013600008233246E5E7012B55D1BDF80430364855
:10137000C3F38311062928BF062161F389130231C3
:101380008900ADF80430FFF7AEFB0546002842D0D7
:10139000FFF7D8FB0023082201A92846FFF7E5FB49
:1013A0000026BDF80420C2F38312B300964203F175
:1013B0000803C6D200994A1CC9B20331009204EB5B
:1013C000810104222846FFF7D0FB0136E9E72846D1
:1013D000FFF7BCFBFFF740FF80F00100C5B2BBE7A1
:1013E000F3685B7923B1336829461B683046984718
:1013F000F3681E68002EF3D12846FFF7A7FB30469E
:10140000FFF792F8D4F818340BB9009BA3600020C2
:10141000FFF78CF8DEE7D4F8104454B90C4B0D48B4
:101420000D49C01AC008000440F0020000F05CF84A
:10143000D0E7236820469B689847E3681C68ECE780
:10144000002589E7D0010020EC530000DC010020DA
:1014500094530000B4530000A15400002DE9F34759
:1014600004460E46924601A9012218469946FFF706
:1014700021FE1B4F10B3019D4FF00008AA1CC84568
:1014800008EB020123D117480021FFF76BF880F326
:101490001000000440EA1440E4006B1C04F038041F
:1014A000DBB2EDB244F0010407EB8303033544EAF9
:1014B000881444EA8624D86047F825403B781BB15D
:1014C000FFF7D4FE0028FBD102B0BDE8F087C9B217
:1014D00007EB81015AF82830CB6008F10108CEE70C
:1014E000D0010020EC05002000231A46FFF7B6BF0C
:1014F00007B50123019201AAFFF7B0FF03B05DF821
:1015000004FB07B5CDE9002302236A46FFF7A6FFD7
:1015100003B05DF804FB000030B50F49D1F810248A
:1015200003460020144634B9DC6820714AB9C1F87A
:101530001034226030BDE4682579854206D02468E5
:10154000F1E7D268116821601360F3E701300A28DF
:10155000E8D14FF0FF30EDE7D0010020084A38B560
:101560000123D2F8104413701D4604B938BDE36856
:101570005D71236820465B689847E3681C68F4E760
:10158000D001002007B503460846197A052911D075
:101590005B7A2BB1094A0A490190FFF77BF8019861
:1015A00008490190FFF776F8019803B05DF804EB65
:1015B000FFF765B8002AF8D0F2E700BFC454000076
:1015C0008B5C0000FE5C000030B5C38885B004462B
:1015D0000D4633B1144A00921449154A2846FFF7C4
:1015E00059F8217A05291DD0637A4BB1A088FFF7FD
:1015F0001DFE104B104953F820202846FFF74AF8EB
:10160000227A0E4BA08853F8222003920021FFF784
:10161000F1FD039A0A490346284605B0BDE830406B
:10162000FFF738B805B030BDC4540000D1540000F5
:10163000C95400004C5500008B5C00007055000040
:10164000E95400002DE9F04385B01F460C9D0023AE
:1016500095F80C902B7306460C4690462946384662
:10166000FFF7B2FFB8F1060F09D8DFE808F004125F
:10167000181F2833400031462846FFF70BF8002298
:1016800029463846FFF77EFF85F80C9005B0BDE887
:10169000F083226831462846FEF7FCFFEFE7D4E9E5
:1016A000002331462846FEF7F5FFE8E7A3680093DC
:1016B0003146D4E900232846FEF7ECFFDFE7E36874
:1016C0000193A36800933146D4E900232846FEF72E
:1016D000E1FFD4E723690293E3680193A3680093D1
:1016E0003146D4E900232846FEF7D4FFC7E76369F3
:1016F000039323690293E3680193A368009331463F
:10170000D4E900232846FEF7C5FFB8E708292DE9EC
:10171000F74F80460E4617461C463CD8002593F8E6
:101720000C901D7319461046FFF74EFFDFF888A096
:10173000DFF888B0AE4231D918F805205946204666
:10174000FEF7A8FF0135082DF4D11949194DDFF82E
:1017500070A02046FEF79EFF4FF0000B5E4522D999
:1017600018F80B207E2A05D81046019203F050FD90
:10177000019A00B92E2251462046FEF78BFF0BF14D
:10178000010BBBF1080FE9D1012221463846FFF7D2
:10179000F9FE84F80C9003B0BDE8F08F5146204666
:1017A000FEF778FFCEE729462046FEF773FFE6E70F
:1017B000F9540000605C00005E5C0000F35400001F
:1017C000FB54000007B58DF807000DF1070106482E
:1017D000FFF729FA0448FFF71AFA08B100F03AF9BE
:1017E00003B05DF804FB00BF8053000038B50C4D1A
:1017F0002B7893B90B4B0C49002808BF1846038877
:10180000284620F8013F00F0E5F8044618B900F03A
:101810000FF901232B70204638BD8524FBE700BF5C
:10182000D806002088550000C517000008B500F054
:1018300011F900F017F90348FFF760FA024B002294
:101840001A7008BD80530000D806002007B50A466C
:1018500001460548FFF737FA019000F0E9F80198D2
:1018600003B05DF804FB00BF80530000F8B50546E7
:101870000C4604B9F8BD402C264628BF4026F7B2D6
:1018800039462846FFF7E2FF0028F9D1A41B35446A
:10189000EFE700001FB503788DF80030436801932F
:1018A00083688DF80830C368054A0393054B684682
:1018B00053F8213052F82110984705B05DF804FB29
:1018C000DC060020E40600201FB503788DF8003008
:1018D0004368019383688DF80830C368054A039311
:1018E000054B684653F8213052F82110984705B04F
:1018F0005DF804FBDC060020E4060020F0B5194B7F
:1019000090F800C0DFF86CE043F82C20164B164628
:101910000A6943F82C204B7F0EF80C300C46074622
:101920000FCC89B06D460FC594E80F0085E80F0015
:101930001EF80C30CDF810C04BB1002E0B4A694692
:1019400008BF3246381D00F0CFFB09B0F0BD002EB5
:10195000074A694608BF324607F10C0000F09CF9BF
:10196000F3E700BFE4060020DC0600209518000025
:10197000C9180000EC060020014B1B68184700BF87
:10198000F006002038B50B4B98420C4601D00020E1
:1019900038BD0020FEF7C8FD074B1D7915B901229F
:1019A0001C601A710020FEF7C1FD002DEFD0112040
:1019B000EEE700BF00200040F0060020034B9842F5
:1019C00001BF034B00221A601A71704700200040CB
:1019D000F006002010B5124C2278FAB9114B1960AC
:1019E000037813F0010F104B1EBFD3F8042542F00B
:1019F0000102C3F80425D3F8002222F00102C3F843
:101A000000224378094A5B01DBB282F80D334FF4C0
:101A10000053136001232370002010BD8520FCE7D4
:101A2000FC060020F806002000D0004000E100E0A5
:101A3000064B00221A6082B01B680193019B044B85
:101A40000122C3F804231A6002B0704700D100409D
:101A500000D00040024A0123C2F8083353607047A7
:101A600000D00040084A0123C2F808335360074BF6
:101A70004FF40052C3F88020BFF34F8FBFF36F8F36
:101A8000034B00221A70704700D0004000E100E0D4
:101A9000FC060020074B00221A6082B01B680193ED
:101AA000019B054BD3F80805044B1B68C0B202B07C
:101AB000184700BF00D1004000D00040F8060020C9
:101AC0000023435082B043580193019B02B07047FA
:101AD0000A4610B54FF48E71FFF7F2FF136A916852
:101AE000C95C136A01331362C0F81C1510BD8B6901
:101AF0000A4610B54FF4847123B9FFF7E1FFD0F81F
:101B0000183510BDFFF7DCFF536AD168D0F818050F
:101B1000C854536A01335362F3E700001FB5012331
:101B20008DF80030044BCDE90110D3E9001268466E
:101B3000904705B05DF804FB0007002030B54C4825
:101B4000D0F8043313F4007F85B005464DD0D0F8AB
:101B50002431002B49D04FF49271FFF7B1FF4FF4BD
:101B60000173C0F80833434B93F829200AB90122C6
:101B700042603F4902228DF80020D1F88024C1F84C
:101B8000802403929A690292DA6801920022C3E9E2
:101B900006226846D3E9001290473548D0F81C3138
:101BA0005BB134494A690B6A9A420A464AD991F8AC
:101BB0002830002B46D1FFF78BFF2D48D0F8443159
:101BC0008BB14FF4A271FFF77BFF2A4B93F82920CA
:101BD0000AB1012202609A692AB10022586AD968C2
:101BE0009A61FFF79BFF05B030BDD5F804335B0762
:101BF000D3D5D5F80831002BCFD01E4C1C48214638
:101C0000FFF775FF636AA2699A422346C5D1E2696C
:101C1000E1684AB12369E3600023606AA261E3617D
:101C20006362FFF77BFFB8E794F829200AB9012225
:101C30006A600F4A4FF40170C2F808030022586A24
:101C40009A61EEE70A484FF48E71FFF739FF536946
:101C5000002BB2D051690291002391688DF80030B9
:101C6000019153616846D2E900139847A5E700BF88
:101C700000200040000700201F2886BF00F01F0042
:101C8000044B4FF0A04300F5E070022243F82020FF
:101C9000704700BF000300502DE9F843614B057900
:101CA00091462C2202FB0532064692F82A200C4669
:101CB0009846002A40F0B1805B490068FFF762FE59
:101CC0000746002840F0AB8021684A1C10D01F292D
:101CD00087BF564A01F01F030B464FF0A042012078
:101CE000984003F5E073C2F80805032042F823008A
:101CF0006068431C0DD01F288BBF00F01F030346F4
:101D00004A4A4FF0A04203F5E0734FF0000C42F84E
:101D100023C03368A269C3F8242594F814C0627DF7
:101D2000BCF1010F4CEA0202C3F86C25C3F814059C
:101D3000C3F80C152BD1A168481C0DD01F298BBFEF
:101D400001F01F020A4639484FF0A04002F5E07248
:101D50004FF0000C40F822C0E068421C13D01F284E
:101D600087BF324A00F01F0C84464FF0A0424FF06C
:101D7000010E0EFA0CFE0CF5E07CC2F808E54FF0FF
:101D8000030E42F82CE0C3F80805C3F810152C2305
:101D90006B4308EB0302C2F80490226948F8032061
:101DA000B9F1000F21D03068247F4FF48E71FFF716
:101DB00087FE4FF4A2713068FFF782FE32681C4B39
:101DC000C2F80433110B42F307326301002ADBB27D
:101DD0001EDB1848841884F800330123520901F0EF
:101DE0001F0103FA01F140F8221033680422C3F8FE
:101DF00000252C2303FB05830022C3E9062283F878
:101E000029205A61012283F82A203846BDE8F88348
:101E1000094A01F00F015354E7E70827F5E71127B6
:101E2000F3E700BF000700203D1B00000003005047
:101E30008000020000E100E014ED00E02DE9F04137
:101E400003680479284D0022C3F800252C2202FBE8
:101E5000045201465268A2B1244AC3F808231A0B5F
:101E600043F30733002B0CDB02F01F005B09012258
:101E7000824020331E4840F82320BFF34F8FBFF32A
:101E80006F8F0B68D3F80C05D3F81485D3F8086569
:101E9000D3F810754FF0FF329042C3F81425C3F801
:101EA0000C25C3F80825C3F8102501D0FFF7E4FE80
:101EB000B8F1FF3F02D04046FFF7DEFE7A1C02D0A9
:101EC0003846FFF7D9FE731C02D03046FFF7D4FE28
:101ED0000868FFF773FD2C2303FB0454002384F8E8
:101EE0002A306360BDE8F081000700208402020010
:101EF00000E100E02DE9F047204F90F804904FF00A
:101F00002C0808FB097405466669002E34D162610D
:101F10000068A16026624FF48E7184F82860FFF794
:101F2000CFFD2868012383602146FFF7D1FD636858
:101F3000A0468BB92868D4F814A0236A9A4511D812
:101F40002A68D2F81C31002BFBD00123D3602C234C
:101F500003FB097300225A613046BDE8F08794F80C
:101F600028303BB9D0F81C31002BF8D04146FFF7A0
:101F7000AFFDE2E70F26EAE71126EDE700070020B4
:101F80000023435082B043580193019B02B0704735
:101F90001FB501238DF80030044BCDE90110D3E9C2
:101FA00000126846904705B05DF804FB2C0700203E
:101FB0001F2886BF00F01F00044B4FF0A04300F520
:101FC000E070022243F82020704700BF0003005059
:101FD0007FB5434AD2F82461002E60D010464FF4FA
:101FE0009271FFF7CDFF02238DF80030D2F88034D4
:101FF000C2F880340393D2F83C350293394BDA6847
:1020000001920022C3E906226846D3E900129047F4
:102010003348D0F8443173B14FF4A271FFF7B0FFE9
:10202000304B9A693AB10022C3E90622D968D0F848
:102030003C05FFF7ADFF2A48D0F82031ABB14FF493
:102040009071FFF79DFF0123C360264B5A6962B16F
:10205000D0F84C150291002299688DF8002001916A
:102060005A616846D3E9001290471D48D0F85831AC
:102070009BB14FF4AC71FFF783FF1A4B5A6962B101
:10208000D0F84C150291002299688DF8002001913A
:102090005A616846D3E90012904704B070BDD2F887
:1020A0001031002BB4D04FF488711046FFF768FF51
:1020B0000C4BD2F83C0599698842A9D1DC69D968F2
:1020C00064B1D2F8005225F02005C2F800521A6916
:1020D0009C61DA60DE61FFF75BFF99E79C61FAE7DC
:1020E000002000402C0700202DE9F843674B0679BB
:1020F0009146242202FB0632044692F820200D4627
:102100009846002A40F0BE8061490068FFF73AFC1B
:102110000746002840F0B8802868421C10D01F28CD
:1021200087BF5C4A00F01F0303464FF0A042012125
:10213000994003F5E073C2F80815032142F8231013
:1021400069684B1C0DD01F298BBF01F01F030B4684
:10215000504A4FF0A04203F5E0734FF0000C42F8F4
:1021600023C02368AA69C3F8242595F814C06A7DA2
:10217000BCF1010F4CEA0202C3F86C25C3F80C0550
:10218000C3F814152BD1A968481C0DD01F298BBF8B
:1021900001F01F020A463F484FF0A04002F5E072EE
:1021A0004FF0000C40F822C0E868421C13D01F28F2
:1021B00087BF384A00F01F0C84464FF0A0424FF012
:1021C000010E0EFA0CFE0CF5E07CC2F808E54FF0AB
:1021D000030E42F82CE0C3F80805C3F810152423B9
:1021E000734308EB0302C2F804902A6948F80320FD
:1021F000B9F1000F30D020682A7F4FF48871FFF7C3
:10220000BFFE20684FF49071FFF7BAFE20684FF4CC
:102210009271FFF7B5FE20684FF4A271FFF7B0FE90
:102220004FF4AC712068FFF7ABFE23681A49C3F87E
:102230000413190B43F307335201002BD2B21CDBFA
:102240001648C51885F8002301225B0901F01F011B
:1022500002FA01F140F8231023680822C3F8002590
:10226000242303FB06830022C3E906225A610122CC
:1022700083F820203846BDE8F883094B01F00F01B0
:102280005A54E9E70827F5E71127F3E72C07002060
:10229000D11F0000000300501003420000E100E0E5
:1022A00014ED00E02DE9F0413D4E0579046824234A
:1022B00003FB056302465B68ABB13A4BC4F80833D5
:1022C00044F30733002B4FEA14310CDB01F01F00FD
:1022D0005B09012181402033334840F82310BFF3CC
:1022E0004F8FBFF36F8FD4F8003223F02003C4F870
:1022F0000032242303FB05639B6933B14FF4A271C1
:102300002046FFF73DFE012363604FF4AC71204689
:10231000FFF736FE0123E360242303FB0563D4F8B3
:1023200058110029FBD0996919B1D4F8441100293A
:10233000F5D00023C4F800351368D3F80C05D3F8A2
:102340001485D3F80815D3F810754FF0FF3290427A
:10235000C3F80C25C3F81425C3F80825C3F81025C5
:1023600001D0FFF725FEB8F1FF3F02D04046FFF74E
:102370001FFE7A1C02D03846FFF71AFE4B1C02D013
:102380000846FFF715FE2046FFF718FB242303FB42
:102390000565002385F820306B60BDE8F08100BF43
:1023A0002C0700201003420000E100E001F0604330
:1023B000B3F1005F2DE9F041064638D11E4B077995
:1023C000242505FB073598466C69002C31D16A61DC
:1023D0000068A9604FF49071FFF7D2FD4FF4AC7123
:1023E0003068FFF7CDFD33686A69A968C3F8441502
:1023F000C3F8482501229A606A68AAB9D3F8202157
:10240000D3F858411AB9002CF8D00F2407E0002C5B
:10241000FBD10122DA60D3F85821002AFBD0242313
:1024200003FB078700237B612046BDE8F081102471
:10243000FAE71124F8E700BF2C07002028B139B1D2
:102440000023C1E900301846704748F21050704729
:1024500048F21350704738B1006848F24053884240
:1024600014BF18460020704748F21050704730B132
:1024700019B10B68934205D30A600020704748F2F7
:102480001350704748F21450704730B148F211535E
:10249000914214BF18460020704748F21050704710
:1024A00070B505460C461E46FFF7C8FF70B96B793C
:1024B0006AB1B3420ED12979094B53F8213063B187
:1024C00011462046984708B9064B236070BD48F274
:1024D0001050FBE748F21150F8E748F20350F5E7D7
:1024E000B05500007652464D70B505460C461E4666
:1024F000FFF7A4FF70B9AB796AB1B3420ED1297965
:10250000094B53F8213063B111462046984708B96A
:10251000064B236070BD48F21050FBE748F21150A3
:10252000F8E748F20350F5E7C05500007052464DF9
:1025300010B508490446FFF78EFF48B963681A7959
:10254000054B53F822300BB12046984700232360F7
:1025500010BD00BF7652464DA055000010B5084989
:102560000446FFF778FF48B963681A79054B53F8BA
:1025700022300BB1204698470023236010BD00BFD6
:102580007052464DA05500002DE9F04782B002AFD1
:102590000446D7F820800D469946164662B319497D
:1025A0002846FFF758FF20BBD5F804A0796A9AF8AF
:1025B000052040465200FFF75AFFD0B99AF8043080
:1025C000114A52F823A0BAF1000F18D054B90F4A9B
:1025D00032F8133033B107336A46DB08A2EBC3038A
:1025E0009D4602ACCDF800804B4632462946204637
:1025F000D047BD46BDE8F08748F21050F9E748F2F1
:102600000350F6E77652464DD0550000E0550000E5
:102610002DE9F04782B00D4602AF04461B49D7F8BA
:102620002080284616469946FFF715FF28BBD5F8A7
:1026300004A0796A9AF8052040465200FFF725FF6A
:10264000D8B9EEB19AF80430114A52F823A0BAF181
:10265000000F18D054B90F4A32F8133033B1073392
:102660006A46DB08A2EBC3039D4602ACCDF80080AE
:102670004B46324629462046D047BD46BDE8F08746
:1026800048F21050F9E748F20350F6E77052464D11
:10269000E8550000E055000070B1084A002352F8E8
:1026A0003310814203D102EBC303586870470133F2
:1026B000192BF4D102487047024870477C5B000038
:1026C00001560000F8550000F8B50A4F0A4C0B4DB2
:1026D000E41B0121E40829700026A64203D102234D
:1026E0002B700020F8BD57F8363098470028F9D1F4
:1026F0000136F2E7785300008053000050070020B5
:10270000054B1A78022A04D01878431E58425841C3
:1027100070470120704700BF5007002070B5064683
:102720000D466A46194B9A4205D3FFF7E9FF78B97F
:102730004FF4054070BD164B16481749C01AC00823
:10274000000440F00100FEF7CFFE48F21950F1E717
:10275000124C236823B1124B1A68124B9A420FD0C5
:1027600086B97DB9104811492060FDF74FFE002859
:10277000E0D10B4B0B4A1A6023680D4A1A60D9E767
:102780000020D7E748F21750D4E700BF00E003204D
:1027900094530000B4530000445C0000A0080020E3
:1027A000980800206572E54B540700209C08002023
:1027B0006169614D094B0A4A196891420AD1094A77
:1027C0001068094A0168914204D1002202601A602F
:1027D000FDF738BE48F20250704700BF980800204D
:1027E0006572E54BA00800206169614D10B56C462B
:1027F000154B9C420FD3DAB9144B1C68144B9C4206
:102800001BD1E8B913481346BDE810400A460068DA
:102810001149FDF727BE114B11481249C01AC008D3
:10282000000440F00100FEF75FFE48F2195010BDB1
:102830000029E1D148F21050F9E748F20250F6E7DA
:1028400048F21750F3E700BF00E00320980800208B
:102850006572E54BA00800209C08002094530000FE
:10286000B4530000445C000073B513460D460446A3
:10287000F8B111B3144A1168144A914220D1144E90
:1028800001932A4601463068FDF7E4FD48F2715293
:10289000904210D1002211461046FFF7A7FF50B911
:1028A000019B30682A46214602B0BDE87040FDF722
:1028B000D1BD48F2135002B070BD48F21450FAE78F
:1028C00048F20250F7E700BF980800206572E54B18
:1028D000A00800200122FFF7C7BF0139014481424F
:1028E00000D2704703780A7800F8012B01F801390B
:1028F000F5E7013A02440139824200D2704711F8EB
:10290000013F02F80139F7E770B516460D46FFF7AB
:10291000F0FF3246A9193044BDE87040FFF7E9BF27
:1029200038B50D460446FFF7D8FF29466019BDE8C3
:102930003840FFF7D2BF000073B5124B124CE41AB7
:10294000E40824040D46014644F003001646FEF751
:10295000CBFD44F005000D490190FEF7C5FD2C4666
:1029600035440B4E0198AC4205D10A4902B0BDE88E
:102970007040FEF7B9BD14F8012B01903146FEF707
:10298000B7FDEFE794530000B45300005D5C000016
:10299000F4540000FE5C000073B52D4B2D4C2E4905
:1029A000E41AE408240444F003063046FEF79CFDD4
:1029B0002A4A2B492B484023FFF796FD054658B17C
:1029C000FFF76AFE284903462A4644F00100FEF755
:1029D00098FD2846FDF750FD244B254A1B680193BE
:1029E000244B00931E4920230020FFF711FE0546CB
:1029F000B8B921493046FEF777FD1948FFF7AEFD1B
:102A0000054618B3FFF748FE174903462A4644F027
:102A10000100FEF776FD284602B0BDE87040FDF7E4
:102A20002BBD48F24253984203D1144944F00200AE
:102A3000E1E7FFF731FE0C4903462A4644F0010066
:102A4000FEF75FFD2846FDF717FDD6E702B070BD23
:102A500094530000B4530000625C00008E5D0000DF
:102A6000CC080020345400007D5C00005409002094
:102A700024000020140900208E5C0000B85C0000D7
:102A8000F7B500210846FEF7A1FB08B1FDF7F4FCFD
:102A9000FEF7D6FA3F4C404B4049E41AE4082404C0
:102AA00044F003073846FEF71FFDFDF741FD0546DC
:102AB00058B1FFF7F1FD3A4903462A4644F00100B8
:102AC000FEF71FFD2846FDF7D7FCFFF7FDFD054685
:102AD00058B1FFF7E1FD324903462A4644F00100B0
:102AE000FEF70FFD2846FDF7C7FC2E493846FEF7D6
:102AF000FBFC2D4A2D492E482023FFF7D1FC05462B
:102B000058B1FFF7C9FD264903462A4644F00100A3
:102B1000FEF7F7FC2846FDF7AFFC264D264A234971
:102B200040232B60254B0093019520230020FFF7C5
:102B30002BFD064658B1FFF7AFFD19490346324653
:102B400044F00100FEF7DDFC3046FDF795FC1A4924
:102B50001B482022FFF7F0FE2A6818491948FFF7A2
:102B6000EBFE1248FFF7E4FC054658B1FFF794FD71
:102B70000B4903462A4644F00100FEF7C2FC2846F2
:102B8000FDF77AFCFFF708FF0F493846FEF7ACFC6B
:102B9000FEE700BFB453000094530000E85C00005F
:102BA0007D5C0000015D00006E5D0000A408002057
:102BB000345400005409002024000020140900208F
:102BC0001E5D0000355D0000495D00008B1810445B
:102BD0008B4200D1704713F8012D00F8012DF7E763
:102BE000C3F10803DB0070B501330446002003A5E0
:102BF0005B1920C940CAAD1920C4184720C940CA72
:102C0000754120C420C940CA754120C420C940CAAA
:102C1000754120C420C940CA754120C420C940CA9A
:102C2000754120C420C940CA754120C420C940CA8A
:102C3000754120C4404170BD00000000000000004C
:102C4000C3F10803DB0070B50133002403A500BF06
:102C50005B1920C940CAAD1B20C0184720C940CA13
:102C6000B54120C020C940CAB54120C020C940CAD2
:102C7000B54120C020C940CAB54120C020C940CAC2
:102C8000B54120C020C940CAB54120C020C940CAB2
:102C9000B54120C06441B4FA84F0400970BD00BF62
:102CA0002DE9F04F08B4F8CA04B451F8042BA3FB83
:102CB000028940F8048B4FF0000AE4FB629A4FF05F
:102CC000000BE5FB62AB4FF0000CE6FB62BC4FF083
:102CD000000EE7FB62CE51F8042B4FF00008E3FB37
:102CE000628940F8048BE4FB629AE5FB62ABE6FB89
:102CF00062BCE7FB62CE51F8042B4FF00008E3FB07
:102D0000628940F8048BE4FB629AE5FB62ABE6FB68
:102D100062BCE7FB62CE51F8042B4FF00008E3FBE6
:102D2000628940F8048BE4FB629AE5FB62ABE6FB48
:102D300062BCE7FB62CE51F8042B4FF00008E3FBC6
:102D4000628940F8048BE4FB629AE5FB62ABE6FB28
:102D500062BCE7FB62CE40F8049B40F804AB40F84D
:102D600004BB40F804CB40F804EB0CBC052B00F08E
:102D70001E810C68A0F11400A1F11401A2F114024B
:102D800052F804EB4FF0000550F8046BE4FB6E566C
:102D900052F804EB50F8047BE4FB6E6752F804EB46
:102DA00050F8048BE4FB6E7852F804EB50F8049B67
:102DB000E4FB6E8952F804EB50F804ABE4FB6E9A26
:102DC000A0F1140052F8044B51F804EB4FF0000C42
:102DD000E4FB6EC540F804CB51F804EBE4FB6E56FF
:102DE00040F8045B51F804EBE4FB6E6740F8046BB9
:102DF00051F804EBE4FB6E7840F8047B51F804EBE7
:102E0000E4FB6E8940F8048B51F804EBE4FB6E9A06
:102E1000A0E80006062B00F0CA800C68A0F118009C
:102E2000A1F11801A2F1180252F804EB4FF00005CD
:102E300050F8046BE4FB6E5652F804EB50F8047B38
:102E4000E4FB6E6752F804EB50F8048BE4FB6E78F9
:102E500052F804EB50F8049BE4FB6E8952F804EB43
:102E600050F804ABE4FB6E9A52F804EB50F804BB44
:102E7000E4FB6EABA0F1180052F8044B51F804EBE0
:102E80004FF0000CE4FB6EC540F804CB51F804EBA6
:102E9000E4FB6E5640F8045B51F804EBE4FB6E670C
:102EA00040F8046B51F804EBE4FB6E7840F8047BC7
:102EB00051F804EBE4FB6E8940F8048B51F804EB05
:102EC000E4FB6E9A40F8049B51F804EBE4FB6EAB14
:102ED000A0E8000C072B6AD008B40C68A0F11C0015
:102EE000A1F11C01A2F11C0252F804EB4FF0000505
:102EF00050F8046BE4FB6E5652F804EB50F8047B78
:102F0000E4FB6E6752F804EB50F8048BE4FB6E7838
:102F100052F804EB50F8049BE4FB6E8952F804EB82
:102F200050F804ABE4FB6E9A52F804EB50F804BB83
:102F3000E4FB6EAB52F804EB50F804CBE4FB6EBC40
:102F4000A0F11C0052F8044B51F804EB4FF00003C1
:102F5000E4FB6E3540F8043B51F804EBE4FB6E569D
:102F600040F8045B51F804EBE4FB6E6740F8046B37
:102F700051F804EBE4FB6E7840F8047B51F804EB65
:102F8000E4FB6E8940F8048B51F804EBE4FB6E9A85
:102F900040F8049B51F804EBE4FB6EAB40F804AB43
:102FA00051F804EBE4FB6EBCA0E8001808BCBDE8D7
:102FB000F08F002310B51C465AB2914200DC10BDC0
:102FC00040F823400133F7E710B500231A465CB2FE
:102FD000A14203DCB2FA82F0400910BD50F8234050
:102FE00001332243F3E74A11012350F8220001F094
:102FF0001F0103FA01F108407047013910B549B2C9
:10300000041D0A06CBB204D4013954F82120002A49
:10301000F7D001335BB273B103F18042013A50F84B
:103020002220002022B9013B00EB431318B210BD4F
:1030300052080130F6E71846F9E710B500235CB2F4
:10304000A24200DC10BD51F8234040F82340013378
:10305000F5E710B5013A52B2130601D5002010BDB4
:1030600050F8224051F822309C4205D802F1FF323C
:10307000F2D24FF0FF30F2E70120F0E730B589B02F
:10308000134615460A4601466846FFF7D9FD29460C
:1030900004466846FFF798FF003C18BF012464000F
:1030A000002814BF6042C4F1010009B030BD00EB3C
:1030B00081010023884200D3704751F8042D43EA70
:1030C00052030B60D307F5E737B51D469DF918305D
:1030D00001930446FFF784FD019B38B91A46214647
:1030E0002846FFF7B6FF0128019B07D02A46214654
:1030F000204603B0BDE83040FFF7A2BD03B030BDAD
:1031000037B51D469DF9183001930446FFF798FD29
:10311000019B38B12A462146204603B0BDE8304025
:10312000FFF75EBD03B030BD2DE9F04FB5B004AC84
:103130009DF9F8501F4680462B462046FFF7B0FD0C
:1031400024AB29463846CDE90234FFF756FFC0EBE1
:10315000851004B2002C2146B8BF04F11F01634260
:1031600003F01F0341F3471104F01F0614A858BFD2
:103170005E42FFF71EFF002E08B22BDD14AB0022CB
:1031800003EB8000C6F1200E1346AB4217D36B0051
:10319000019314AB03EB85096F1E34AB012603EBDF
:1031A0008707002C54DA34AB03EB86062A4656F820
:1031B000C81C4046FFF741FF35B0BDE8F08F57F817
:1031C00023C00CFA06F10A4340F8042B01332CFA11
:1031D0000EF2DAE714AB2A46394603EB8000FFF71C
:1031E0002CFFD4E70FFA82FE5AF8C83C53F82EB0F1
:1031F00034AB03EB8202013052F8803C0B44BBEB52
:10320000030334BF012200229B4518BF11465CF81E
:10321000C82C42F82E30019B42B29A42E2DB731A6C
:103220005E42294614A85E41FFF741FF34AB03EB31
:103230008503294653F8802C57F8803C43EAC27333
:1032400047F8803C4846013CFFF731FF24B2A8E72D
:1032500034AB0020C6F1010C014603EB860A03EBF8
:103260008C0CD8E730B51C4691B0054693F9003078
:103270006846FFF715FDD4F8AC30694628469847F4
:1032800011B030BD13460A46FFF7ECBF2DE9F047F9
:1032900093F9006092B004468946104631461546BF
:1032A0001F46FFF791FE002840F091803A464946BC
:1032B00002A8FFF7E7FF3B4602AA21460AA8FFF74C
:1032C000D1FF02A908463A46FFF7DCFF3B462A46F3
:1032D00049464846FFF7C6FF07F104083A46294623
:1032E0002846FFF7CFFF43462A4621462046009650
:1032F000FFF7EAFE43462A46294628460096FFF78E
:10330000E3FE43462A46214628460096FFF7F8FE8C
:103310003B462A4621462046FFF7A4FF4346224665
:10332000214628460096FFF7CFFE434600962A46E0
:1033300021462046FFF7C8FE2368DB074AD53346FF
:10334000424621462046FFF74BFC31468246204646
:10335000FFF7ADFE06F18043013B54F8232042EA1B
:10336000CA7244F823203A4621462846FFF78AFFCE
:1033700043460AAA294628460096FFF7C1FE43465F
:103380000AAA294628460096FFF7BAFE0AA9084667
:1033900043462A460096FFF7B3FE3B460AAA21465B
:1033A0002046FFF75FFF02AA4346104621460096DB
:1033B000FFF7A6FE324629462046FFF73EFE494665
:1033C0002846FFF73AFE02A94846FFF736FE12B03C
:1033D000BDE8F08731462046FFF769FEC3E72DE9D7
:1033E000F04115468AB004460E461C22002103A86F
:1033F00001F03CFF2F1D95F9008003232A4631463A
:1034000020460293FFF73EFF3B4602AA2146204694
:10341000CDF80080FFF774FE2B4632462146204649
:10342000FFF720FFCDF800803B4605F184022146DE
:103430002046FFF749FE0AB0BDE8F0812DE9F042D1
:10344000082288B0FFF7F9FDCB6A03930B6B049356
:103450004B6B05938B6B0693CB6B07930C468146A6
:103460000027134669466A466846CDE9017700970A
:10347000FFF7B6FB082305466A4649464846FFF76C
:10348000AFFB236B0393636B0493A36B0593E36B15
:103490000544CDE906376A46082369466846FFF7C2
:1034A0009FFB082305446A4649464846FFF798FBB8
:1034B000236A0093636A0193A36A0293A36B069342
:1034C000E36B0793054408236A4649464846CDE91D
:1034D00004770397FFF784FB636A0093A36AA26BE8
:1034E0000193E36A02930492636BE26B0393CDE969
:1034F0000523236A07932E1808236A46494648463F
:10350000FFF76EFBE36A0093236B0193636B0293F7
:10351000236A0693A36A0793351808236A46494627
:103520004846CDE904770397FFF78AFB236B0093A6
:10353000636B0193A36B0293E36B0393636A06933C
:10354000E36A07932E1A08236A4649464846CDE99E
:103550000477FFF775FB636B0093A36B0193E36B39
:103560000293236A0393636A0493A36ACDE9053740
:10357000236B0793361A08236A4649464846FFF7E5
:103580005FFBA36B0093E36BCDE90137636A0393A1
:10359000A36A0493E36ACDE90537636B0793361A90
:1035A00008236A4649464846FFF74AFB361A0E4C3E
:1035B0000FD436B9082249462046FFF74AFD0128B4
:1035C0000FD00823224649464846FFF739FB361AF2
:1035D000EFE70823224649464846FFF701FB361825
:1035E000F7D408B0BDE8F082D45D000070B5144691
:1035F0008AB006460D461A46214602A80193FFF7F7
:1036000041FE019B02AA31463046FFF72BFE02A97C
:10361000019B22460846FFF725FE019B02AA294688
:103620002846FFF71FFE0AB070BD2DE9F0478AB0AB
:103630001446DDF848A055461F4615F9046B009660
:10364000804689462B460246214602A8FFF758FDD0
:1036500002A952460846FFF715FE534602AA414604
:103660004046FFF7FFFD534602AA21462046FFF7DA
:10367000F9FD2B464A46394638460096FFF740FD8D
:103680005246394602A8FFF7FDFD02A92B464246E5
:1036900008460096FFF734FD02A92B46224608464D
:1036A0000096FFF72DFD2B46424621462046009608
:1036B000FFF726FD5346224649464846FFF7D2FD0E
:1036C0002B4602AA414620460096FFF719FD5346B5
:1036D000224639463846FFF7C5FD2B464A4639464D
:1036E00038460096FFF70CFD324602A92046FFF748
:1036F000A4FC0AB0BDE8F0872DE9F0479AB0164661
:10370000DDF888804446994614F9045B0095074625
:103710008A4623460246314602A8FFF7F1FC02A979
:1037200042460846FFF7AEFD434602AA39463846F0
:10373000FFF798FD434602AA31463046FFF792FD57
:1037400023465246494602A80095FFF7BDFC234692
:103750005246494648460095FFF7D2FC23463A4672
:1037600031460AA80095FFF7CBFC43460AAA51460A
:103770005046FFF777FD2346324639460AA80095A2
:10378000FFF7A2FC424649463046FFF77BFD234641
:103790000AAA314630460095FFF7B2FC234632466E
:1037A000394612A80095FFF7ABFC434612AA4946DA
:1037B0004846FFF757FD234652464946484600957E
:1037C000FFF79EFC424602A912A8FFF75BFD12A973
:1037D00023460AAA08460095FFF792FC23463A467C
:1037E00012A90AA80095FFF78BFC0AA9434602AA72
:1037F0000846FFF737FD234652460AA95046009572
:10380000FFF77EFC2A4612A93846FFF716FC1AB0CD
:10381000BDE8F087F7B5B3F902701C4617F11F0336
:103820000D4648BF07F13E0343F3471301461646D2
:10383000284604F12402CDE90023FFF7D1F9DDE9A0
:10384000002390B9B7EB431F11DA39462846FFF73A
:10385000CAFBDDE90023041E18BF012429463046B7
:10386000FFF7BEF9204603B0F0BD0124F6E7044699
:10387000F4E700002DE9F84F0F46DFF86CA006468C
:10388000114638461446FFF7B8FBDAF8003003B3A8
:103890000425C0EB441014FB05FB00B205FB0465D6
:1038A0004FF0FF38043D28FA00F84FF04009DAF8ED
:1038B000003059463046984758B12B6803EA080350
:1038C0002B6021463046FFF77FFB20B1B9F101099B
:1038D000EDD1002006E0224631463846FFF7CEFB08
:1038E0000128F3D1BDE8F88F580900202DE9F047F1
:1038F0001F46B3F9023013F11F0448BF03F13E0421
:10390000DD1D48BF03F10E056611EC10944275B23F
:1039100028BF144689462946FFF74BFB22464946F5
:103920008046FFF753F9B7F90230B3EBC40F4FEA03
:10393000C4021FD2D21A08EB86040021C2F120066D
:10394000A0450ED324372A4641463846FFF781FB6F
:1039500001280FD02B463A464046BDE8F047FFF716
:103960006FB954F8040D20FA02F30B43236000FAF8
:1039700006F1E5E7BDE8F08770B5036813F00106CE
:103980000546144605D013460A460146FFF728F9B6
:10399000064621462846FFF78AFB46B104F18042DD
:1039A000013A55F8223043F0004345F8223070BD0B
:1039B000F0B50F46A1B006461946384615461C46D6
:1039C000FFF702FB28B1304621B0BDE8F040FFF719
:1039D000F0BA224639466846FFF72FFB294608A869
:1039E000FFF72BFB10A82146FFF7E3FA012318A8E5
:1039F0001093FFF7DEFA224608A96846FFF729FB75
:103A000030B9224610A93046FFF717FB21B0F0BDB0
:103A1000009BDA0709D421466846FFF748FB224697
:103A2000294610A8FFF7A8FFE5E7089BDB0707D4A6
:103A3000214608A8FFF73BFB2246294618A8F1E7D4
:103A4000002823461CDD08AA69466846FFF7F8F8F7
:103A500021466846FFF72BFB224618A910A8FFF75E
:103A6000F8FA002805DA10A923462A460846FFF787
:103A7000B7F810A9234618AA0846FFF7E1F8CEE7E1
:103A80006A4608A8FFF7DCF8214608A8FFF70FFBF5
:103A9000224610A918A8FFF7DCFA002805DA18A9B1
:103AA00023462A460846FFF79BF818A9234610AA82
:103AB0000846FFF7C5F8BFE72DE9F04FB1B0CDE9F3
:103AC00002013B9C049294F9007018A83A461D46E6
:103AD000FFF7B3FABB000593039B03EB870A51463C
:103AE00028A8FFF7AAFA94F90020002D00F084809E
:103AF000294608A8FFF7A1FA0DF1400818A9404689
:103B00000DF18009FFF799FA28A94846FFF795FAC1
:103B1000234608AA18A8FFF769FDD4F8A450234645
:103B200008AA28A918A8A847234608AA4946404633
:103B3000FFF75CFDBDF9E850023D2DB2002D64DCBD
:103B4000049B1D68009405F0010610AB03EB4618BA
:103B5000ED4320AB03EB461605F0010510AB03EB7C
:103B6000451920AB03EB45152B464A4631464046E6
:103B700004F1040BFFF7C0FD5B4610AA18A908A8C2
:103B80000097FFF7BDFA08A9234632460846FFF71B
:103B900069FB08A9039A23460846FFF763FB08A9B7
:103BA0003B465A460846FFF703FF08A923465246FC
:103BB0000846FFF757FB08A9234642460846FFF789
:103BC00051FB33464246294648460094FFF72DFDF7
:103BD000234608AA20A910A8FFF708FD02983A4634
:103BE00010A9FFF72AFA0298059B20A91844FFF7AD
:103BF00024FA31B0BDE8F08F114608A80692FFF70D
:103C0000D8F90123069A089376E729460498FFF726
:103C1000EAF9B0FA80F67609C6F1010108EB461B15
:103C200009EB461608EB4110334609EB41115A46A1
:103C30000094CDE90601FFF75FFD0799069800940F
:103C40000B46024631465846FFF7EFFC013D74E74C
:103C50002DE9F04F2DED048B97B01D46259E96F96A
:103C600000B008EE100A08EE901A0DF1180A0EAB1B
:103C70005946284609EE102ACDF810A00593FFF703
:103C8000A3F928B1002017B0BDEC048BBDE8F08F7C
:103C9000B6F9029019F11F0448BF09F13E0444F33C
:103CA000471406F12408224629464046FFF7E6F964
:103CB0000128E7D133460EAA51462846FFF7AAFD50
:103CC0004A4B1B6807466BB116AB03EB80035A46A1
:103CD00053F8483C03931846311DFFF7CBFD039B77
:103CE0000028CFD0B7FA87F716AA7F0909F1010992
:103CF00002EB87070FFA89F201960092249857F891
:103D0000482C06F14401FFF7D7FE24985946FFF7E7
:103D10005BF90028B6D1354B1B68002B5ED12146DC
:103D200006A8FFF746F901230693434606AA29464B
:103D300028460094FFF7F8F92346424629462846CC
:103D4000FFF736FE434606AA294628460094FFF7A9
:103D5000EBF9B6F90230DA1D48BF03F10E0218EE96
:103D6000101AD2105046FEF731FF16AA631E02EB5E
:103D7000830300220EA843F8202C24995A46FFF70B
:103D80005CF90246434651460094FFF7CDF919EE1F
:103D9000102A18EE901A33465046FFF7A7FD0EAAD8
:103DA0001046434651460094FFF78EF90EA92A4665
:103DB000084643460094FFF7B7F921460EA8FFF7DF
:103DC0001CF996F90120B0EBC20F3FF75BAF249BC3
:103DD0000EA99818FEF7FAFE012054E72246414644
:103DE00006A8FFF747FD00289FD14BE758090020A0
:103DF000014B1860704700BF580900200048704709
:103E0000D05D00002DE9F0478AB00546DDF8489006
:103E10000E4617469846402409F1240AB9F90230A3
:103E200013F11F0248BF03F13E0242F3471251460D
:103E300002A8FFF71FFD50B1CDE9008902AB3A4659
:103E400031462846FFF704FF28B9013CE6D100209F
:103E50000AB0BDE8F0870120FAE72DE9F04F2DED1B
:103E6000028BEBB00D46769E03901946B6F90230F0
:103E700096F9004013F11F0848BF03F13E0848F3CC
:103E8000471808F1FF3B22AB002743F82B706AABC1
:103E900003EB8B034AA843F8807C43F8607C92468E
:103EA00096F90120FEF792FE96F9012052A81144DE
:103EB000FEF78CFE21464AA8FFF786F881460028C7
:103EC00040F0278152A8FFF77FF80290002840F0C9
:103ED000228106F1240942464AA94846FFF7B9F86B
:103EE000012840F01A81424652A94846FFF7B1F82E
:103EF0000128049040F011810AAF43464A461AA8AF
:103F0000FFF756FD029B47F82B30524629463846AC
:103F10003346FFF7EBFC394638464B461AAACDF834
:103F20000080FFF701F95AAD4B461AAA4AA912A818
:103F3000CDF80080FFF7F8F8224628460399FFF7EE
:103F40007CF8A3000593039B05EB840A03EB840133
:103F500006F1440B5046FFF770F8594632A8FFF7B8
:103F60006CF8A3000BEB03013AA8FFF766F8331DCA
:103F7000294632AA1AA8009408EE103AFFF7C0F8B2
:103F800053462A463AA932A80096FFF74EFB1AA9D3
:103F9000084618EE102A2346FFF70AFD1AAA5146D2
:103FA00028463346FFF722FB029BCDE9063B039BE5
:103FB00041463846CDE90835FFF71FF841468346AC
:103FC00012A8FFF71AF85845B8BF584685B2691EBF
:103FD00009B238460391FFF706F80399071E12A8A5
:103FE00018BF0127FEF7FFFF002814BF02200020A2
:103FF0000DF1180A074322465AF8271022A8FFF7A6
:104000001CF80DF1A80BA30019445846FFF715F84A
:104010001AA82146FEF7CDFF049B0360023D22ABA8
:104020002DB203938246002D26DA18EE102A23467D
:1040300051465046FFF7BCFC03983346524659465A
:10404000FFF7D4FA039942464846FFF702F80128E1
:1040500004D043464A460846FEF7F2FD013C64B2EE
:104060004AAA23064AD5029BB3FA83F040096BB0F3
:10407000BDEC028BBDE8F08F33465246D6F8A470F3
:1040800003985946B84729460AA8FEF7ACFF2946C7
:10409000071E12A818BF0127FEF7A5FF002814BFAE
:1040A00002200020074306AB53F8271019B322461D
:1040B00032A8FEF7C2FF059B3AA81944FEF7BDFFE0
:1040C00001463346524632A8FFF790FA18EE103AEE
:1040D0000399009432AA42A8FFF712F8039A0096B7
:1040E0005B463AA932A8FFF7A0FA334642AA5146E6
:1040F0005046FFF7B7F8013D2DB294E7039B52F805
:10410000241053F824304B40029919430291013C8A
:10411000A7E73846ABE74846A9E70298A7E74FF478
:104120008C72002101F0A2B818B14FF48C7100F02C
:1041300039BE7047C02AF0B541D0B2F5807F40D07B
:10414000802A40F0C5800A230446036000F108037A
:10415000520944F8043F01EB82028A4233D10368DA
:104160000C2B3ED00E2B6CD00A2B26D15A4D5B491E
:1041700000F1A006426955F8044B8768C2F3072393
:104180007C40CB5C6340140E10300C5D83EA04432A
:10419000D4B20C5D83EA0463C2F307440C5D83EA86
:1041A000042350F8044C836063400468C360634098
:1041B0000361534043618642DCD100208AE00C2336
:1041C000C2E70E23C0E78B784D781B0443EA052332
:1041D0000D782B43CD7843EA056344F8043F04315E
:1041E000BBE73D4C3D4900F1C005C26954F8046B82
:1041F0008768C2F307237E40CB5C7340160E1830ED
:104200008E5D83EA0643D6B28E5D83EA0663C2F30F
:1042100007468E5D83EA062350F80C6C836073407A
:1042200050F8086CC360734050F8046C036173402D
:1042300006684361734083615340C3618542D4D1B2
:10424000BBE7254D254900F1E006446A55F8042BEB
:104250008768C4F307237A40CB5C87695340220EFA
:1042600020308A5C83EA0243E2B28A5C83EA02631A
:10427000C4F307428A5C83EA022350F8142C83605B
:10428000534050F8102CC360534050F80C2C03617D
:104290005340DAB243618A5C7A401F0ECF5D82EAF6
:1042A0000762C3F30727C3F30743CF5DCB5C82EA02
:1042B000072282EA034350F8042C836153400268CA
:1042C000C36153400362634043628642BDD174E7D9
:1042D0006FF01F00F0BD00BF806F0000805E000027
:1042E0002DE9F04F91B043680D6808951C68DFF820
:1042F00048C3CD4FCD4E6C404D68099508945C681D
:104300006C408D680A9509949C686C400A94CC684E
:104310000B9403F110010791D968C54D61400B91D1
:104320000168491001910139029130330091DDE9B2
:10433000089ADDE90A815FFA89F4080E5CF82440E6
:1043400057F820004440CAF307205FFA81FE56F870
:1043500020005CF82EE04440C8F307405FFA88FB79
:1043600055F820005CF82BB0444053F8200C604016
:10437000C4B20394040E0494C0F307440594C0F33C
:10438000072406944FEA1864C8F3072857F8244016
:104390008EEA040EC9F30724203356F824408EEA2F
:1043A000040ECAF3074455F824408EEA040E4FEA7F
:1043B0001A645FFA8AFA57F824405CF82AA08BEA5C
:1043C0000404C1F3072BC1F3074156F82BB055F88D
:1043D000211084EA0B04C9F3074B4FEA196955F819
:1043E0002BB057F829908AEA090A56F828908AEAE9
:1043F000090A8AEA01090099002984EA0B0400F3FA
:104400009780029B0C905E01019B002B079BD8BFFD
:10441000002633441E46596889EA01010D919868C7
:1044200060400E90DB688EEA0304250E814B0F94EA
:1044300013F805C0039D5F5D35696F40C1F3072523
:1044400087EA0C675D5D87EA0527C0F307455D5D78
:1044500087EA0547049D089713F805C0756985EA42
:104460000C6CCDB25D5D8CEA050CC0F307255D5D7B
:104470008CEA052CC4F307455D5D8CEA054C059D6F
:10448000CDF824C013F80580B56985EA0848C5B29F
:10449000000E5D5D88EA05080D0EC1F307415D5D04
:1044A00088EA0568C4F307255D5D88EA0528069D4E
:1044B000CDF8288013F805E0F569185C177085EAD7
:1044C0000E255FFA84FE82F804C013F80E405B5C90
:1044D00082F80880390A5170390C91704FEA1C211A
:1044E00051714FEA1C41917165404FEA182185EAEC
:1044F000006551724FEA184185EA034391724FEA11
:104500001861D172190A5173190C4FEA1C600B9390
:10451000137391731B0E20213C0ED071D4700DEBE0
:104520000100D37300F03EFC002011B0BDE8F08F15
:104530000C9053F83C1C89EA0109CDF8349053F8EB
:10454000380C039960400E9053F8344C8EEA040402
:104550000F944FEA14685CF821E053F8301C57F8C8
:10456000288081EA0E0E8EEA080EC9F30728049906
:1045700056F828808EEA080EC0F3074855F82880C0
:104580008EEA080ECDF820E05FFA89F857F821E0AE
:1045900053F82C1C5CF8288081EA0E0E8EEA080E77
:1045A000C0F30728059956F828808EEA080EC4F350
:1045B000074855F828808EEA080ECDF824E05FFA07
:1045C00080FE55F821805CF82EE053F8281C8EEA16
:1045D000080E4FEA19688EEA010E57F828800699EE
:1045E0008EEA080EC4F30728E4B256F828805CF877
:1045F00024408EEA080ECDF828E056F821E0000E9F
:1046000084EA0E0EC9F3074153F8244C57F82000F2
:1046100055F821108EEA040444404C4000990B9454
:104620000139009183E600BF806B000080630000C9
:1046300080670000805E0000805F00002DE9F04F81
:1046400091B043680D6808951C68DFF850C3CF4FE0
:10465000CF4E6C404D68099508945C686C408D683D
:104660000A9509949C686C400A94CC680B9403F1F9
:1046700010010791D968C74D61400B91016849103D
:1046800001910139029130330091DDF82080DDF88D
:1046900024A05FFA88F44FEA1A60DDE90A9157F81E
:1046A00020005CF824404440C1F307205FFA81FEFB
:1046B00056F820005CF82EE04440C9F307405FFA4A
:1046C00089FB55F820005CF82BB0444053F8200CCF
:1046D0006040C4B20394C0F307240494C0F30744B9
:1046E0000594040E06944FEA1864203357F82440CA
:1046F0008EEA040EC9F307244FEA196956F82440DC
:1047000057F829908EEA040ECAF3074455F824405E
:104710008EEA040E0C0EC1F3074157F8244055F8F9
:1047200021108BEA0404CAF3072B5FFA8AFA56F8C1
:104730002BB05CF82AA084EA0B04C8F3074BC8F33B
:1047400007288AEA090A56F8289055F82BB08AEA11
:10475000090A8AEA01090099002984EA0B0400F396
:104760009780029B0C905E01019B002B079BD8BF9A
:10477000002633441E46596889EA01010D91986864
:1047800060400E90DB680D0E8EEA0304824B0F949E
:1047900013F805C0039D5F5D35696F40C4F30725BD
:1047A00087EA0C675D5D87EA0527C0F307455D5D15
:1047B00087EA0547049D089713F805C0756985EADF
:1047C0000C2CCDB25D5D8CEA050C050E5D5D8CEAAE
:1047D000056CC4F307455D5D8CEA054C059DCDF87D
:1047E00024C013F80580B56985EA0848C5B2C0F34E
:1047F00007205D5D88EA0508250E5D5D88EA05688D
:10480000C1F30725C1F307415D5D88EA0528069DD0
:10481000CDF8288013F805E0F569185C177085EA73
:104820000E655FFA84FE82F804C013F80E405B5CEC
:1048300082F80880390A5170390C91704FEA1C21B6
:1048400051714FEA1C41917165404FEA182185EA88
:10485000002551724FEA184185EA034391724FEAED
:104860001861D172190A5173190C4FEA1C600B932D
:10487000137391731B0E20213C0ED071D4700DEB7D
:104880000100D37300F08EFA002011B0BDE8F08F64
:104890000C9053F83C1C89EA0109CDF8349053F888
:1048A000380C039960400E9053F8344C8EEA04049F
:1048B0000F944FEA19685CF821E053F8301C57F860
:1048C000288081EA0E0E8EEA080EC4F307280499A8
:1048D00056F828808EEA080EC0F3074855F828805D
:1048E0008EEA080ECDF820E05FFA89FE56F82180A6
:1048F0005CF82EE053F82C1C8EEA080E4FEA106884
:104900008EEA010E57F8288005998EEA080EC4F346
:10491000074855F828808EEA080ECDF824E05FFAA3
:1049200080FE55F821805CF82EE053F8281C8EEAB2
:10493000080E4FEA14688EEA010E57F8288006998F
:104940008EEA080EC9F30728E4B256F828805CF80E
:1049500024408EEA080ECDF828E057F8218053F85D
:10496000241CC0F3072081EA0808C9F3074156F860
:10497000200055F8211088EA040E8EEA000E8EEA17
:1049800001010B910099013900917EE6A87C00009D
:10499000A8740000A8780000A86F0000A8700000AC
:1049A00010B40C46012C11461A4603D15DF8044B95
:1049B000FFF796BC5DF8044BFFF740BE2DE9F04FC2
:1049C000B2F5C07FADF53F7D06460F46154600F2B5
:1049D000A9804FF4D072002156A800F047FC10A81F
:1049E000FFF79DFB0DF5B8786BBA0024ADF86A317E
:1049F0002A462023404639468DF86F31ADF868418C
:104A000000F00BFC80236A4608F8053023469046E8
:104A100002F8013B0133102BFAD18022414610A845
:104A2000FFF788FB044600285CD1193507461022A1
:104A300000210DEB020000F019FCAA460DF26713ED
:104A400004AAA3F110099346117819F8010F414007
:104A5000994502F8011BF7D1BAF1100F5B465A468F
:104A60004FF0010110A894BFAAEB0A0AAAF1100A9C
:104A7000FFF796FF0446A8BB09F11003BAF1000F37
:104A8000DED108ABD8191022594600F0C6FB9DF8BC
:104A90005B3110370133202F8DF85B31C7D1802275
:104AA00008A910A8FFF746FB0446D8B90CAB1A4674
:104AB000012110A8FFF774FF044698B910220CA931
:104AC000304600F0AAFB0CAB1A46012110A8FFF7F4
:104AD00067FF06F11005044620B910220CA92846EC
:104AE00000F09BFB10A8FFF71FFB4FF4D07156A8F6
:104AF00000F058F920210DEB010000F053F91021CE
:104B0000404600F04FF910210DEB010000F04AF98A
:104B10001CB12021304600F045F920460DF53F7DBF
:104B2000BDE8F08F6FF03704F7E72DE9F04389B067
:104B300005460E4620220021684600F097FB00271C
:104B400005F12009E8460DEB070305F10F010A788E
:104B50000132D2B2084601F801290AB9A842F6D1B9
:104B60002A4601214846FFF71BFF0446D0B91037FB
:104B7000202FE7D1731E1F3698F8002013F8011F6D
:104B80004A40B34208F8012BF6D1802269464846D4
:104B9000FFF7D0FA044628B910220DEB020128468F
:104BA00000F03BFB6846202100F0FCF8204609B0ED
:104BB000BDE8F08310B54FF4A0720446002100F068
:104BC00055FB4FF6F073E36110BD10B5044650B1CC
:104BD0002030FFF7A9FA4FF4A071204600F0E2F868
:104BE0004FF6F073E36110BDF0B58369B3F5C07F94
:104BF000E1B005460F46144632D8C3F5C073934260
:104C00002ED34FF4C0720021684600F02FFBD5F878
:104C10003831AA69D5F83C016946984718BBAE6996
:104C20003FB134B10DEB06002246394600F0F5FAEB
:104C30002644324669466846FFF7C0FE044638B946
:104C400069462846FFF771FF044608B901232B6126
:104C50004FF4C071684600F0A5F8204661B0F0BD81
:104C60006FF03704F9E76FF03304F6E7F0B587B07B
:104C700004460F4616460021102202A81D4600F0E9
:104C8000F5FA04F120000190FFF749FAA3690198B1
:104C9000C4E94E760BB92023A361802202A9FFF755
:104CA00049FA20B90C9A29462046FFF79DFF07B024
:104CB000F0BD2DE9F0418CB0B2F5806FDDF8488091
:104CC00005460F4616461C465ED8B8F5807F5ED86E
:104CD0002022002104A800F0C9FA2A69EB699A424F
:104CE00001DC6B699BB1214642462846FFF77CFFF9
:104CF000044628BB05F1200836BB04A92846FFF767
:104D000014FF0446A0B92B6901332B6110E0B8F100
:104D1000000FEFD02146424604A8FFF74FFE04469D
:104D200030B904A92846FFF700FF04460028E1D067
:104D3000202104A800F036F81021684600F032F86F
:104D400020460CB0BDE8F08105F10F021378013365
:104D5000DBB2114602F801390BB9A942F6D16B4614
:104D60002A4601214046FFF71BFE04460028DFD1FA
:104D7000102E344628BF102438462246694600F0DB
:104D80004CFA2744361BB7E76FF03504D8E76FF0CD
:104D90003704D5E707B500230093FFF78AFF03B078
:104DA0005DF804FB0A4619B1024B00211B68184745
:104DB000704700BF44000020034B1868A0F10803AF
:104DC00058425841704700BF30010010064B1B6825
:104DD000082B06D1054B1B68052B02D8044AD05C72
:104DE00070470020704700BF3001001034010010F0
:104DF000AE800000024AD2F80034002BFBD070478E
:104E000000E0014010B5FFF7D7FF40B14FF08043FD
:104E10000022C3F80C21C3F81021C3F83825FFF78E
:104E2000CBFF002846D04FF08052614BD2F80414DB
:104E3000C3F82015D2F80814C3F82415D2F80C14BE
:104E4000C3F82815D2F81014C3F82C15D2F814148E
:104E5000C3F83015D2F81814C3F83415D2F81C145E
:104E6000C3F84015D2F82014C3F84415D2F824141E
:104E7000C3F84815D2F82814C3F84C15D2F82C14EE
:104E8000C3F85015D2F83014C3F85415D2F83414BE
:104E9000C3F86015D2F83814C3F86415D2F83C147E
:104EA000C3F86815D2F84014C3F86C15D2F844243E
:104EB000C3F87025FFF78AFF10B13E4B3E4A1A60D7
:104EC000FFF784FF18B13D4BFB22C3F81825FFF70D
:104ED0007DFF48B13A493B4B0A681B6822F00F023C
:104EE00003F00F0313430B60FFF770FF18B1364B4D
:104EF0004FF400721A60FFF75FFF48B14FF0804334
:104F0000D3F80024D20744BF6FF00102C3F8002495
:104F10002E4AD2F8883043F47003C2F88830BFF3C9
:104F20004F8FBFF36F8F2A4B1B68082B0ED1294B75
:104F30001B68052B02D8284AD35C3BB14FF01023E5
:104F4000D3F808224FF08043C3F858254FF01023C0
:104F5000D3F80022002A03DBD3F80432002B22DA34
:104F60001E490123C1F80435FFF744FF4FF010201C
:104F70001224C0F80042FFF73DFFC0F80442FFF7DB
:104F800039FF0023C1F80435FFF734FFBFF34F8F1B
:104F90000E49134BCA6802F4E0621343CB60BFF3BF
:104FA0004F8F00BFFDE70F4B0F4A1A6010BD00BFC7
:104FB00000C000408C5600404881030000F00040D3
:104FC000E40E0040580200104096024000ED00E060
:104FD0003001001034010010A880000000E0014002
:104FE0000400FA05480000200090D0030369C1685E
:104FF0008B429DBF8268D21802F1FF3203F1FF336A
:1050000094BF501A581A70472DE9F843D0E902941A
:105010000546A9EB04084068904520440F46144417
:1050200004D900F0FAF8EC60BDE8F8834246A4EB3E
:10503000090400F0F2F86868224607EB0801F0E77F
:105040002DE9F843C5680646894617464FF0000823
:105050003469B3687068A54228BFE418013C621B3C
:105060005C1BBC4228BF3C46944228BF14464946BC
:105070002844224600F0D1F8B3682544AB4208BF6B
:1050800000253F1BA044A144F560E1D14046BDE8A6
:10509000F883000010B5114C114AA2610223C4E943
:1050A0000433104BE361A2644FF400630E4A0F49CE
:1050B0002362E26400231022E01DA3626362E362C4
:1050C000A3656365E365226500F003F9084920469E
:1050D00000F0FFF82023A37110BD00BF5C09002081
:1050E000B4800000E4090020D4090020BD80000045
:1050F000C1800000F8B5184C182300FB033503FBF2
:1051000000402544C46A012C0F4616460FD0022CDD
:105110001AD0F4B92846FFF769FF864205D832460F
:1051200039462846FFF770FF34462046F8BD28462A
:10513000FFF75CFF8642344628BF044622463946C4
:105140002846FFF761FFF0E72846BDE8F840FFF783
:1051500077BF0024E9E700BF5C090020FFF79ABF92
:105160007F2805D8034B185C034B5B5C18407047E5
:1051700000207047D480000054810000A0F161033A
:10518000192B98BF20387047A0F14103192B98BF05
:10519000203070477F2805D8034B185C034B5B5CBD
:1051A0001840704700207047D480000054810000F0
:1051B000A0F16103192B98BF20387047A0F141037B
:1051C000192B98BF203070477F299ABF01700120AA
:1051D0006FF02E0070475AB10A787F2A0AD800B1C2
:1051E0000260002119605960501A18BF01207047F1
:1051F000002070476FF02E007047000008B5034B89
:105200005B689B681B68984708BD00BF4C00002086
:1052100008B50921FFF7F2FF08BD844640EA010303
:1052200013F0030F18D18446202A0BD32DE9F00781
:10523000B1E8F807A0E8F807A2F12002202AF7D287
:10524000BDE8F007042A07D351F8043B40F8043BBB
:10525000A2F10402042AF7D2002A05D011F8013B7A
:1052600000F8013B013AF9D1604670478446002AB4
:105270002DD010F0030F04D000F8011B013A26D006
:10528000F7E7C9B241EA012141EA0141202A12D3DC
:10529000A2F120022DE9F0030B460C460D460E4606
:1052A0000F4688468946A0E8FA03203AFBD2BDE8BB
:1052B000F00320320BD0042A05D340F8041B043A33
:1052C00005D0042AF9D200F8011B013AFBD160464F
:1052D0007047024610F0030F16D111F0030F13D1DF
:1052E0002DE9F0004FF001374FF0803351F8044BB7
:1052F000A4EB070525EA04051D4002D142F8044B42
:10530000F4E7A1F10401F0BC11F8013B02F8013B04
:10531000002BF9D1704700F1010110F0030F11D0FB
:1053200010F8012B002A23D010F0030F0AD010F838
:10533000012B002A1CD010F0030F03D010F8012B12
:10534000002A15D02DE970004FF001324FF0803364
:1053500050F8044BA4EB020525EA04051D4000D1DA
:10536000F6E7A0F1040070BC10F8012B002AFBD175
:08537000A0EB010070470000F2
:08537800D5030000D103000081
:10538000CC0600208806002040000000010000003C
:045390000000000019
:105394008A550000000000008E5500000000000047
:1053A4009255000000000000975500000000000026
:1053B400B25400000000040419540000000000006E
:0853C400845500000000000008
:1053CC00485400000000000091540000140000201C
:1053DC007454000000000000805400001C000020E9
:1053EC0000010020C8010020D0010020080100208D
:0453FC001800000095
:10540000466174616C206572726F720053797374B7
:10541000656D207265736574006D656D5F6D6E6797
:1054200072003031323334353637383941424344F3
:10543000454600004800280002204000FD3D0000D5
:105440000338FDD870470000250E0000910E0000C3
:10545000210E0000FFFFFFFFFFFFFFFFFFFFFFFF29
:10546000FFFFFFFF00000000000000000000D60169
:10547000060100005D0F000011100000590F000030
:10548000756172745F6C6F675F6261636B656E6498
:10549000007274745F6C6F675F6261636B656E64EA
:1054A000004261636B656E647320666C757368653A
:1054B0006400617070000000F00500207F000000B3
:1054C000700600201B5B306D001B5B313B33316D80
:1054D0000025734C6F67732064726F707065642071
:1054E0002825642925730D0A003C25733E20257369
:1054F0003A20002025303278007C002563001B5BB9
:10550000313B33306D001B5B313B33326D001B5B35
:10551000313B33336D001B5B313B33346D001B5B20
:10552000313B33356D001B5B313B33366D001B5B0C
:10553000313B33376D007761726E696E6700696E5B
:10554000666F00646562756700000000C454000067
:10555000FE540000C9540000065500000E5500001E
:10556000165500001E550000265500002E5500005F
:105570000000000006540000365500003E550000B3
:1055800043550000726E6700010650525300524EA0
:105590004700554152540055415254450000000007
:1055A00000000000000000000000000000000000FB
:1055B000410D0000410D0000410D0000410D0000B3
:1055C000510D0000510D0000510D0000510D000063
:1055D000610D0000610D0000610D0000610D000013
:1055E0000000000000000000C90D0000C90D00000F
:1055F000C90D0000C90D00004E6F206572726F72F8
:10560000004572726F72206E6F742072656C6174E7
:10561000656420746F206E72665F63727970746F58
:10562000206C696272617279006E72665F63727972
:1056300070746F5F696E697420776173206E6F7428
:105640002063616C6C6564207072696F7220746F86
:1056500020746869732063727970746F2066756E48
:105660006374696F6E0041206E756C6C20706F6999
:105670006E746572207761732070726F76696465ED
:105680006420666F722074686520636F6E7465783D
:105690007420737472756374757265005468652044
:1056A000636F6E7465787420776173206E6F7420F9
:1056B000696E697469616C697A6564207072696F7A
:1056C0007220746F20746869732063616C6C206F42
:1056D000722069742077617320636F7272757074C1
:1056E00065642E20506C656173652063616C6C206D
:1056F00074686520636F72726573706F6E64696E33
:105700006720696E69742066756E6374696F6E20B8
:10571000666F722074686520616C676F7269746867
:105720006D20746F20696E697469616C697A652097
:105730006974005468652066756E6374696F6E20C5
:105740007761732063616C6C65642077697468208D
:105750006120666561747572652074686174206982
:105760007320756E617661696C61626C6500546866
:10577000652066756E6374696F6E20636F756C6407
:10578000206E6F742062652063616C6C65642062BA
:1057900065636175736520746865206372797074E0
:1057A0006F206261636B656E642077617320627540
:1057B00073792E20506C6561736520726572756E09
:1057C000207468652063727970746F6772617068A5
:1057D000696320726F7574696E6520617420612041
:1057E0006C617465722074696D65004F6E65206F21
:1057F00072206D6F7265206F662074686520696E17
:1058000070757420617267756D656E747320666F54
:105810007220746869732066756E6374696F6E2098
:10582000776173204E554C4C00546865206C656E52
:10583000677468206F66206F6E65206F72206D6FD1
:105840007265206F662074686520696E70757420BB
:10585000617267756D656E74732077617320696E10
:1058600076616C696400496E70757420646174615E
:10587000206E6F7420696E2052414D004F6E65207E
:105880006F72206D6F7265206F6620746865206F7F
:10589000757470757420617267756D656E747320B0
:1058A000666F7220746869732066756E6374696FC1
:1058B0006E20776173204E554C4C00546865206C07
:1058C000656E677468206F6620746865206F6E650A
:1058D000206F72206D6F7265206F75747075742003
:1058E000617267756D656E74732077617320746F74
:1058F0006F20736D616C6C00412072657175697207
:105900006564206D656D6F727920616C6C6F636189
:1059100074696F6E206661696C656400416E206910
:105920006E7465726E616C206572726F72206F6347
:10593000637572726564207768656E2063616C6C54
:10594000696E6720746869732066756E6374696F29
:105950006E00496E76616C696420636F6D62696E7A
:105960006174696F6E206F6620696E707574207047
:105970006172616D65746572730053697A65206F39
:105980006620746865206B6579206973206E6F747A
:1059900020737570706F727465642062792063681B
:1059A0006F6F73656E206261636B656E6400537424
:1059B00061636B206F766572666C6F7720646574C7
:1059C000656374656400454343206B6579207761A6
:1059D00073206E6F7420696E697469616C697A6591
:1059E00064005075626C696320616E642070726936
:1059F00076617465206B65792070726F7669646575
:105A00006420746F204543444820686176652064B3
:105A10006966666572656E74207479706573206F4F
:105A20006620637572766573005369676E6174757D
:105A3000726520766572696669636174696F6E204C
:105A4000636865636B207265706F7274656420694A
:105A50006E76616C6964207369676E6174757265D6
:105A60000050726F7669646564206B657920697394
:105A700020696E76616C6964004D6573736167655A
:105A80002070616464696E6720697320636F72724D
:105A900075707465642E004D4143206E6F74206DE7
:105AA00061746368696E6720656E6372797074658E
:105AB0006420746578740053697A65206F66207479
:105AC0006865206E6F6E6365206973206E6F742049
